{
  "contractName": "SupplyChain",
  "abi": [
    {
      "inputs": [],
      "payable": false,
      "stateMutability": "nonpayable",
      "type": "constructor"
    },
    {
      "anonymous": false,
      "inputs": [
        {
          "indexed": false,
          "internalType": "string",
          "name": "name",
          "type": "string"
        },
        {
          "indexed": false,
          "internalType": "string",
          "name": "description",
          "type": "string"
        },
        {
          "indexed": false,
          "internalType": "uint256",
          "name": "price",
          "type": "uint256"
        }
      ],
      "name": "LogAddMedicine",
      "type": "event"
    },
    {
      "constant": true,
      "inputs": [
        {
          "internalType": "uint256",
          "name": "",
          "type": "uint256"
        }
      ],
      "name": "DIS",
      "outputs": [
        {
          "internalType": "address",
          "name": "addr",
          "type": "address"
        },
        {
          "internalType": "uint256",
          "name": "id",
          "type": "uint256"
        },
        {
          "internalType": "string",
          "name": "name",
          "type": "string"
        },
        {
          "internalType": "string",
          "name": "place",
          "type": "string"
        }
      ],
      "payable": false,
      "stateMutability": "view",
      "type": "function"
    },
    {
      "constant": true,
      "inputs": [
        {
          "internalType": "uint256",
          "name": "",
          "type": "uint256"
        }
      ],
      "name": "MAN",
      "outputs": [
        {
          "internalType": "address",
          "name": "addr",
          "type": "address"
        },
        {
          "internalType": "uint256",
          "name": "id",
          "type": "uint256"
        },
        {
          "internalType": "string",
          "name": "name",
          "type": "string"
        },
        {
          "internalType": "string",
          "name": "place",
          "type": "string"
        }
      ],
      "payable": false,
      "stateMutability": "view",
      "type": "function"
    },
    {
      "constant": true,
      "inputs": [
        {
          "internalType": "uint256",
          "name": "",
          "type": "uint256"
        }
      ],
      "name": "MedicineStock",
      "outputs": [
        {
          "internalType": "uint256",
          "name": "id",
          "type": "uint256"
        },
        {
          "internalType": "string",
          "name": "name",
          "type": "string"
        },
        {
          "internalType": "string",
          "name": "description",
          "type": "string"
        },
        {
          "internalType": "uint256",
          "name": "price",
          "type": "uint256"
        },
        {
          "internalType": "uint256",
          "name": "RMSid",
          "type": "uint256"
        }
      ],
      "payable": false,
      "stateMutability": "view",
      "type": "function"
    },
    {
      "constant": true,
      "inputs": [
        {
          "internalType": "address",
          "name": "",
          "type": "address"
        },
        {
          "internalType": "uint256",
          "name": "",
          "type": "uint256"
        }
      ],
      "name": "MedicinesByAddress",
      "outputs": [
        {
          "internalType": "uint256",
          "name": "",
          "type": "uint256"
        }
      ],
      "payable": false,
      "stateMutability": "view",
      "type": "function"
    },
    {
      "constant": true,
      "inputs": [],
      "name": "Owner",
      "outputs": [
        {
          "internalType": "address",
          "name": "",
          "type": "address"
        }
      ],
      "payable": false,
      "stateMutability": "view",
      "type": "function"
    },
    {
      "constant": true,
      "inputs": [
        {
          "internalType": "uint256",
          "name": "",
          "type": "uint256"
        }
      ],
      "name": "ProductStock",
      "outputs": [
        {
          "internalType": "uint256",
          "name": "id",
          "type": "uint256"
        },
        {
          "internalType": "string",
          "name": "name",
          "type": "string"
        },
        {
          "internalType": "string",
          "name": "description",
          "type": "string"
        },
        {
          "internalType": "uint256",
          "name": "price",
          "type": "uint256"
        },
        {
          "internalType": "uint256",
          "name": "MANid",
          "type": "uint256"
        },
        {
          "internalType": "uint256",
          "name": "DISid",
          "type": "uint256"
        },
        {
          "internalType": "uint256",
          "name": "RETid",
          "type": "uint256"
        },
        {
          "internalType": "enum SupplyChain.STAGE",
          "name": "stage",
          "type": "uint8"
        }
      ],
      "payable": false,
      "stateMutability": "view",
      "type": "function"
    },
    {
      "constant": true,
      "inputs": [
        {
          "internalType": "uint256",
          "name": "",
          "type": "uint256"
        }
      ],
      "name": "RET",
      "outputs": [
        {
          "internalType": "address",
          "name": "addr",
          "type": "address"
        },
        {
          "internalType": "uint256",
          "name": "id",
          "type": "uint256"
        },
        {
          "internalType": "string",
          "name": "name",
          "type": "string"
        },
        {
          "internalType": "string",
          "name": "place",
          "type": "string"
        }
      ],
      "payable": false,
      "stateMutability": "view",
      "type": "function"
    },
    {
      "constant": true,
      "inputs": [
        {
          "internalType": "uint256",
          "name": "",
          "type": "uint256"
        }
      ],
      "name": "RMS",
      "outputs": [
        {
          "internalType": "address",
          "name": "addr",
          "type": "address"
        },
        {
          "internalType": "uint256",
          "name": "id",
          "type": "uint256"
        },
        {
          "internalType": "string",
          "name": "name",
          "type": "string"
        },
        {
          "internalType": "string",
          "name": "place",
          "type": "string"
        }
      ],
      "payable": false,
      "stateMutability": "view",
      "type": "function"
    },
    {
      "constant": true,
      "inputs": [],
      "name": "disCtr",
      "outputs": [
        {
          "internalType": "uint256",
          "name": "",
          "type": "uint256"
        }
      ],
      "payable": false,
      "stateMutability": "view",
      "type": "function"
    },
    {
      "constant": true,
      "inputs": [],
      "name": "manCtr",
      "outputs": [
        {
          "internalType": "uint256",
          "name": "",
          "type": "uint256"
        }
      ],
      "payable": false,
      "stateMutability": "view",
      "type": "function"
    },
    {
      "constant": true,
      "inputs": [],
      "name": "medicineCtr",
      "outputs": [
        {
          "internalType": "uint256",
          "name": "",
          "type": "uint256"
        }
      ],
      "payable": false,
      "stateMutability": "view",
      "type": "function"
    },
    {
      "constant": true,
      "inputs": [],
      "name": "productCtr",
      "outputs": [
        {
          "internalType": "uint256",
          "name": "",
          "type": "uint256"
        }
      ],
      "payable": false,
      "stateMutability": "view",
      "type": "function"
    },
    {
      "constant": true,
      "inputs": [],
      "name": "retCtr",
      "outputs": [
        {
          "internalType": "uint256",
          "name": "",
          "type": "uint256"
        }
      ],
      "payable": false,
      "stateMutability": "view",
      "type": "function"
    },
    {
      "constant": true,
      "inputs": [],
      "name": "rmsCtr",
      "outputs": [
        {
          "internalType": "uint256",
          "name": "",
          "type": "uint256"
        }
      ],
      "payable": false,
      "stateMutability": "view",
      "type": "function"
    },
    {
      "constant": false,
      "inputs": [
        {
          "internalType": "address",
          "name": "_address",
          "type": "address"
        },
        {
          "internalType": "string",
          "name": "_name",
          "type": "string"
        },
        {
          "internalType": "string",
          "name": "_place",
          "type": "string"
        }
      ],
      "name": "addRMS",
      "outputs": [],
      "payable": false,
      "stateMutability": "nonpayable",
      "type": "function"
    },
    {
      "constant": false,
      "inputs": [
        {
          "internalType": "address",
          "name": "_address",
          "type": "address"
        },
        {
          "internalType": "string",
          "name": "_name",
          "type": "string"
        },
        {
          "internalType": "string",
          "name": "_place",
          "type": "string"
        }
      ],
      "name": "addManufacturer",
      "outputs": [],
      "payable": false,
      "stateMutability": "nonpayable",
      "type": "function"
    },
    {
      "constant": false,
      "inputs": [
        {
          "internalType": "address",
          "name": "_address",
          "type": "address"
        },
        {
          "internalType": "string",
          "name": "_name",
          "type": "string"
        },
        {
          "internalType": "string",
          "name": "_place",
          "type": "string"
        }
      ],
      "name": "addDistributor",
      "outputs": [],
      "payable": false,
      "stateMutability": "nonpayable",
      "type": "function"
    },
    {
      "constant": false,
      "inputs": [
        {
          "internalType": "address",
          "name": "_address",
          "type": "address"
        },
        {
          "internalType": "string",
          "name": "_name",
          "type": "string"
        },
        {
          "internalType": "string",
          "name": "_place",
          "type": "string"
        }
      ],
      "name": "addRetailer",
      "outputs": [],
      "payable": false,
      "stateMutability": "nonpayable",
      "type": "function"
    },
    {
      "constant": true,
      "inputs": [
        {
          "internalType": "address",
          "name": "_address",
          "type": "address"
        }
      ],
      "name": "findRMS",
      "outputs": [
        {
          "internalType": "uint256",
          "name": "",
          "type": "uint256"
        }
      ],
      "payable": false,
      "stateMutability": "view",
      "type": "function"
    },
    {
      "constant": true,
      "inputs": [
        {
          "internalType": "address",
          "name": "_address",
          "type": "address"
        }
      ],
      "name": "findMAN",
      "outputs": [
        {
          "internalType": "uint256",
          "name": "",
          "type": "uint256"
        }
      ],
      "payable": false,
      "stateMutability": "view",
      "type": "function"
    },
    {
      "constant": false,
      "inputs": [
        {
          "internalType": "uint256",
          "name": "_produitId",
          "type": "uint256"
        }
      ],
      "name": "Distribute",
      "outputs": [],
      "payable": false,
      "stateMutability": "nonpayable",
      "type": "function"
    },
    {
      "constant": false,
      "inputs": [
        {
          "internalType": "uint256",
          "name": "_produitId",
          "type": "uint256"
        }
      ],
      "name": "Retail",
      "outputs": [],
      "payable": false,
      "stateMutability": "nonpayable",
      "type": "function"
    },
    {
      "constant": false,
      "inputs": [
        {
          "internalType": "uint256",
          "name": "_produitId",
          "type": "uint256"
        }
      ],
      "name": "sold",
      "outputs": [],
      "payable": false,
      "stateMutability": "nonpayable",
      "type": "function"
    },
    {
      "constant": false,
      "inputs": [
        {
          "internalType": "string",
          "name": "_name",
          "type": "string"
        },
        {
          "internalType": "string",
          "name": "_description",
          "type": "string"
        },
        {
          "internalType": "uint256",
          "name": "_price",
          "type": "uint256"
        },
        {
          "internalType": "uint256",
          "name": "_rmsId",
          "type": "uint256"
        }
      ],
      "name": "addMedicine",
      "outputs": [],
      "payable": false,
      "stateMutability": "nonpayable",
      "type": "function"
    },
    {
      "constant": true,
      "inputs": [
        {
          "internalType": "address",
          "name": "_address",
          "type": "address"
        }
      ],
      "name": "getMedicinesByAddress",
      "outputs": [
        {
          "internalType": "uint256[]",
          "name": "",
          "type": "uint256[]"
        }
      ],
      "payable": false,
      "stateMutability": "view",
      "type": "function"
    },
    {
      "constant": true,
      "inputs": [
        {
          "internalType": "address",
          "name": "_address",
          "type": "address"
        }
      ],
      "name": "getRole",
      "outputs": [
        {
          "internalType": "string",
          "name": "",
          "type": "string"
        }
      ],
      "payable": false,
      "stateMutability": "view",
      "type": "function"
    },
    {
      "constant": false,
      "inputs": [
        {
          "internalType": "string",
          "name": "_name",
          "type": "string"
        },
        {
          "internalType": "string",
          "name": "_description",
          "type": "string"
        },
        {
          "internalType": "uint256",
          "name": "_price",
          "type": "uint256"
        },
        {
          "internalType": "uint256[]",
          "name": "_medicineIds",
          "type": "uint256[]"
        },
        {
          "internalType": "uint256",
          "name": "_MANid",
          "type": "uint256"
        }
      ],
      "name": "addProduct",
      "outputs": [],
      "payable": false,
      "stateMutability": "nonpayable",
      "type": "function"
    },
    {
      "constant": true,
      "inputs": [],
      "name": "getAllMedicines",
      "outputs": [
        {
          "internalType": "uint256[]",
          "name": "",
          "type": "uint256[]"
        }
      ],
      "payable": false,
      "stateMutability": "view",
      "type": "function"
    },
    {
      "constant": true,
      "inputs": [
        {
          "internalType": "uint256[]",
          "name": "medicineIds",
          "type": "uint256[]"
        }
      ],
      "name": "getMedicineDetails",
      "outputs": [
        {
          "components": [
            {
              "internalType": "uint256",
              "name": "id",
              "type": "uint256"
            },
            {
              "internalType": "string",
              "name": "name",
              "type": "string"
            },
            {
              "internalType": "string",
              "name": "description",
              "type": "string"
            },
            {
              "internalType": "uint256",
              "name": "price",
              "type": "uint256"
            },
            {
              "internalType": "uint256",
              "name": "RMSid",
              "type": "uint256"
            }
          ],
          "internalType": "struct SupplyChain.medicine[]",
          "name": "",
          "type": "tuple[]"
        }
      ],
      "payable": false,
      "stateMutability": "view",
      "type": "function"
    },
    {
      "constant": true,
      "inputs": [],
      "name": "getAllProducts",
      "outputs": [
        {
          "components": [
            {
              "internalType": "uint256",
              "name": "id",
              "type": "uint256"
            },
            {
              "internalType": "string",
              "name": "name",
              "type": "string"
            },
            {
              "internalType": "string",
              "name": "description",
              "type": "string"
            },
            {
              "internalType": "uint256",
              "name": "price",
              "type": "uint256"
            },
            {
              "internalType": "uint256[]",
              "name": "medicineIds",
              "type": "uint256[]"
            },
            {
              "internalType": "uint256",
              "name": "MANid",
              "type": "uint256"
            },
            {
              "internalType": "uint256",
              "name": "DISid",
              "type": "uint256"
            },
            {
              "internalType": "uint256",
              "name": "RETid",
              "type": "uint256"
            },
            {
              "internalType": "enum SupplyChain.STAGE",
              "name": "stage",
              "type": "uint8"
            }
          ],
          "internalType": "struct SupplyChain.Product[]",
          "name": "",
          "type": "tuple[]"
        }
      ],
      "payable": false,
      "stateMutability": "view",
      "type": "function"
    }
  ],
  "bytecode": "0x608060405260006001556000600255600060035560006004556000600555600060065534801561002e57600080fd5b50336000806101000a81548173ffffffffffffffffffffffffffffffffffffffff021916908373ffffffffffffffffffffffffffffffffffffffff1602179055506139dc8061007e6000396000f3fe608060405234801561001057600080fd5b50600436106101da5760003560e01c806368f2b1d211610104578063aaea34aa116100a2578063dd28639811610071578063dd2863981461058b578063eb1a06b5146105a9578063eef5cb40146105dd578063f017afc814610610576101da565b8063aaea34aa14610500578063b4a99a4e1461051e578063c4a07fd11461053c578063cc40306914610558576101da565b8063857ddb04116100de578063857ddb041461047a57806390d09738146104965780639c03facb146104c6578063a95f29d9146104e2576101da565b806368f2b1d2146104225780636a992c9f146104405780637e43d94d1461045c576101da565b80632bdb2e6b1161017c5780634def474a1161014b5780634def474a1461036c5780635573d8b21461038857806357567514146103bf57806359bf286f146103ef576101da565b80632bdb2e6b146102e45780633d753a1c14610302578063438e9c4d1461031e578063442767331461033c576101da565b80632a4af440116101b85780632a4af4401461025d5780632b0187ac146102795780632b70b08d146102ac5780632ba25bdc146102c8576101da565b806302ee3a52146101df57806311f0307d146101fd5780631768c6251461022d575b600080fd5b6101e7610640565b6040516101f49190613438565b60405180910390f35b61021760048036036102129190810190612ad8565b610921565b604051610224919061347c565b60405180910390f35b61024760048036036102429190810190612ad8565b6109b8565b6040516102549190613605565b60405180910390f35b61027760048036036102729190810190612b01565b610a79565b005b610293600480360361028e9190810190612d4f565b610bb5565b6040516102a394939291906133e5565b60405180910390f35b6102c660048036036102c19190810190612b01565b610d35565b005b6102e260048036036102dd9190810190612cbc565b610e71565b005b6102ec610fc8565b6040516102f99190613605565b60405180910390f35b61031c60048036036103179190810190612d4f565b610fce565b005b6103266110a0565b6040516103339190613605565b60405180910390f35b61035660048036036103519190810190612ad8565b6110a6565b604051610363919061349e565b60405180910390f35b61038660048036036103819190810190612d4f565b611212565b005b6103a2600480360361039d9190810190612d4f565b6112e4565b6040516103b6989796959493929190613681565b60405180910390f35b6103d960048036036103d49190810190612bbc565b611469565b6040516103e6919061345a565b60405180910390f35b61040960048036036104049190810190612d4f565b6116d1565b60405161041994939291906133e5565b60405180910390f35b61042a611851565b604051610437919061347c565b60405180910390f35b61045a60048036036104559190810190612b01565b6118c9565b005b610464611a05565b6040516104719190613605565b60405180910390f35b610494600480360361048f9190810190612b01565b611a0b565b005b6104b060048036036104ab9190810190612ad8565b611b47565b6040516104bd9190613605565b60405180910390f35b6104e060048036036104db9190810190612d4f565b611c08565b005b6104ea611ce1565b6040516104f79190613605565b60405180910390f35b610508611ce7565b6040516105159190613605565b60405180910390f35b610526611ced565b60405161053391906133ca565b60405180910390f35b61055660048036036105519190810190612bfd565b611d12565b005b610572600480360361056d9190810190612d4f565b611fcf565b60405161058294939291906133e5565b60405180910390f35b61059361214f565b6040516105a09190613605565b60405180910390f35b6105c360048036036105be9190810190612d4f565b612155565b6040516105d4959493929190613620565b60405180910390f35b6105f760048036036105f29190810190612d4f565b6122bb565b60405161060794939291906133e5565b60405180910390f35b61062a60048036036106259190810190612b80565b61243b565b6040516106379190613605565b60405180910390f35b6060600060025411610687576040517f08c379a000000000000000000000000000000000000000000000000000000000815260040161067e906135c5565b60405180910390fd5b60606002546040519080825280602002602001820160405280156106c557816020015b6106b261285f565b8152602001906001900390816106aa5790505b5090506000600190505b600254811161091957600760008281526020019081526020016000206040518061012001604052908160008201548152602001600182018054600181600116156101000203166002900480601f01602080910402602001604051908101604052809291908181526020018280546001816001161561010002031660029004801561079a5780601f1061076f5761010080835404028352916020019161079a565b820191906000526020600020905b81548152906001019060200180831161077d57829003601f168201915b50505050508152602001600282018054600181600116156101000203166002900480601f01602080910402602001604051908101604052809291908181526020018280546001816001161561010002031660029004801561083c5780601f106108115761010080835404028352916020019161083c565b820191906000526020600020905b81548152906001019060200180831161081f57829003601f168201915b50505050508152602001600382015481526020016004820180548060200260200160405190810160405280929190818152602001828054801561089e57602002820191906000526020600020905b81548152602001906001019080831161088a575b505050505081526020016005820154815260200160068201548152602001600782015481526020016008820160009054906101000a900460ff1660038111156108e357fe5b60038111156108ee57fe5b8152505082600183038151811061090157fe5b602002602001018190525080806001019150506106cf565b508091505090565b6060600960008373ffffffffffffffffffffffffffffffffffffffff1673ffffffffffffffffffffffffffffffffffffffff1681526020019081526020016000208054806020026020016040519081016040528092919081815260200182805480156109ac57602002820191906000526020600020905b815481526020019060010190808311610998575b50505050509050919050565b600080600354116109c857600080fd5b6000600190505b6003548111610a6e578273ffffffffffffffffffffffffffffffffffffffff16600a600083815260200190815260200160002060000160009054906101000a900473ffffffffffffffffffffffffffffffffffffffff1673ffffffffffffffffffffffffffffffffffffffff161415610a6157600a600082815260200190815260200160002060010154915050610a74565b80806001019150506109cf565b50600090505b919050565b610a8283612469565b15610ac2576040517f08c379a0000000000000000000000000000000000000000000000000000000008152600401610ab9906135a5565b60405180910390fd5b60056000815480929190600101919050555060405180608001604052808473ffffffffffffffffffffffffffffffffffffffff168152602001600554815260200183815260200182815250600c6000600554815260200190815260200160002060008201518160000160006101000a81548173ffffffffffffffffffffffffffffffffffffffff021916908373ffffffffffffffffffffffffffffffffffffffff160217905550602082015181600101556040820151816002019080519060200190610b8f9291906128b6565b506060820151816003019080519060200190610bac9291906128b6565b50905050505050565b600c6020528060005260406000206000915090508060000160009054906101000a900473ffffffffffffffffffffffffffffffffffffffff1690806001015490806002018054600181600116156101000203166002900480601f016020809104026020016040519081016040528092919081815260200182805460018160011615610100020316600290048015610c8d5780601f10610c6257610100808354040283529160200191610c8d565b820191906000526020600020905b815481529060010190602001808311610c7057829003601f168201915b505050505090806003018054600181600116156101000203166002900480601f016020809104026020016040519081016040528092919081815260200182805460018160011615610100020316600290048015610d2b5780601f10610d0057610100808354040283529160200191610d2b565b820191906000526020600020905b815481529060010190602001808311610d0e57829003601f168201915b5050505050905084565b610d3e83612506565b15610d7e576040517f08c379a0000000000000000000000000000000000000000000000000000000008152600401610d7590613545565b60405180910390fd5b60036000815480929190600101919050555060405180608001604052808473ffffffffffffffffffffffffffffffffffffffff168152602001600354815260200183815260200182815250600a6000600354815260200190815260200160002060008201518160000160006101000a81548173ffffffffffffffffffffffffffffffffffffffff021916908373ffffffffffffffffffffffffffffffffffffffff160217905550602082015181600101556040820151816002019080519060200190610e4b9291906128b6565b506060820151816003019080519060200190610e689291906128b6565b50905050505050565b6001600081548092919060010191905055506040518060a00160405280600154815260200185815260200184815260200183815260200182815250600860006001548152602001908152602001600020600082015181600001556020820151816001019080519060200190610ee79291906128b6565b506040820151816002019080519060200190610f049291906128b6565b506060820151816003015560808201518160040155905050600960003373ffffffffffffffffffffffffffffffffffffffff1673ffffffffffffffffffffffffffffffffffffffff16815260200190815260200160002060015490806001815401808255809150509060018203906000526020600020016000909192909190915055507f6832897766ef6c55d2c5dc0020ee560a56f64f8b1153156e169221d107c7a1ce848484604051610fba939291906134c0565b60405180910390a150505050565b60055481565b600081118015610fe057506002548111155b610fe957600080fd5b6000610ff4336125a3565b90506000811161100357600080fd5b6001600381111561101057fe5b6007600084815260200190815260200160002060080160009054906101000a900460ff16600381111561103f57fe5b1461104957600080fd5b80600760008481526020019081526020016000206007018190555060026007600084815260200190815260200160002060080160006101000a81548160ff0219169083600381111561109757fe5b02179055505050565b60045481565b60606110b182612506565b156110f3576040518060400160405280601381526020017f5261774d6174657269616c537570706c69657200000000000000000000000000815250905061120d565b6110fc82612664565b1561113e576040518060400160405280600c81526020017f4d616e7566616374757265720000000000000000000000000000000000000000815250905061120d565b61114782612469565b15611189576040518060400160405280600b81526020017f4469737472696275746f72000000000000000000000000000000000000000000815250905061120d565b61119282612701565b156111d4576040518060400160405280600881526020017f52657461696c6572000000000000000000000000000000000000000000000000815250905061120d565b6040518060400160405280600481526020017f4e6f6e650000000000000000000000000000000000000000000000000000000081525090505b919050565b60008111801561122457506002548111155b61122d57600080fd5b60006112383361279e565b90506000811161124757600080fd5b6000600381111561125457fe5b6007600084815260200190815260200160002060080160009054906101000a900460ff16600381111561128357fe5b1461128d57600080fd5b80600760008481526020019081526020016000206006018190555060016007600084815260200190815260200160002060080160006101000a81548160ff021916908360038111156112db57fe5b02179055505050565b6007602052806000526040600020600091509050806000015490806001018054600181600116156101000203166002900480601f0160208091040260200160405190810160405280929190818152602001828054600181600116156101000203166002900480156113965780601f1061136b57610100808354040283529160200191611396565b820191906000526020600020905b81548152906001019060200180831161137957829003601f168201915b505050505090806002018054600181600116156101000203166002900480601f0160208091040260200160405190810160405280929190818152602001828054600181600116156101000203166002900480156114345780601f1061140957610100808354040283529160200191611434565b820191906000526020600020905b81548152906001019060200180831161141757829003601f168201915b5050505050908060030154908060050154908060060154908060070154908060080160009054906101000a900460ff16905088565b60608082516040519080825280602002602001820160405280156114a757816020015b611494612936565b81526020019060019003908161148c5790505b50905060008090505b83518110156116c75760008482815181106114c757fe5b602002602001015190506000811180156114e357506001548111155b611522576040517f08c379a000000000000000000000000000000000000000000000000000000000815260040161151990613565565b60405180910390fd5b600860008281526020019081526020016000206040518060a001604052908160008201548152602001600182018054600181600116156101000203166002900480601f0160208091040260200160405190810160405280929190818152602001828054600181600116156101000203166002900480156115e35780601f106115b8576101008083540402835291602001916115e3565b820191906000526020600020905b8154815290600101906020018083116115c657829003601f168201915b50505050508152602001600282018054600181600116156101000203166002900480601f0160208091040260200160405190810160405280929190818152602001828054600181600116156101000203166002900480156116855780601f1061165a57610100808354040283529160200191611685565b820191906000526020600020905b81548152906001019060200180831161166857829003601f168201915b50505050508152602001600382015481526020016004820154815250508383815181106116ae57fe5b60200260200101819052505080806001019150506114b0565b5080915050919050565b600d6020528060005260406000206000915090508060000160009054906101000a900473ffffffffffffffffffffffffffffffffffffffff1690806001015490806002018054600181600116156101000203166002900480601f0160208091040260200160405190810160405280929190818152602001828054600181600116156101000203166002900480156117a95780601f1061177e576101008083540402835291602001916117a9565b820191906000526020600020905b81548152906001019060200180831161178c57829003601f168201915b505050505090806003018054600181600116156101000203166002900480601f0160208091040260200160405190810160405280929190818152602001828054600181600116156101000203166002900480156118475780601f1061181c57610100808354040283529160200191611847565b820191906000526020600020905b81548152906001019060200180831161182a57829003601f168201915b5050505050905084565b6060806001546040519080825280602002602001820160405280156118855781602001602082028038833980820191505090505b5090506000600190505b60015481116118c157808260018303815181106118a857fe5b602002602001018181525050808060010191505061188f565b508091505090565b6118d283612664565b15611912576040517f08c379a000000000000000000000000000000000000000000000000000000000815260040161190990613505565b60405180910390fd5b60046000815480929190600101919050555060405180608001604052808473ffffffffffffffffffffffffffffffffffffffff168152602001600454815260200183815260200182815250600b6000600454815260200190815260200160002060008201518160000160006101000a81548173ffffffffffffffffffffffffffffffffffffffff021916908373ffffffffffffffffffffffffffffffffffffffff1602179055506020820151816001015560408201518160020190805190602001906119df9291906128b6565b5060608201518160030190805190602001906119fc9291906128b6565b50905050505050565b60065481565b611a1483612701565b15611a54576040517f08c379a0000000000000000000000000000000000000000000000000000000008152600401611a4b90613585565b60405180910390fd5b60066000815480929190600101919050555060405180608001604052808473ffffffffffffffffffffffffffffffffffffffff168152602001600654815260200183815260200182815250600d6000600654815260200190815260200160002060008201518160000160006101000a81548173ffffffffffffffffffffffffffffffffffffffff021916908373ffffffffffffffffffffffffffffffffffffffff160217905550602082015181600101556040820151816002019080519060200190611b219291906128b6565b506060820151816003019080519060200190611b3e9291906128b6565b50905050505050565b60008060045411611b5757600080fd5b6000600190505b6004548111611bfd578273ffffffffffffffffffffffffffffffffffffffff16600b600083815260200190815260200160002060000160009054906101000a900473ffffffffffffffffffffffffffffffffffffffff1673ffffffffffffffffffffffffffffffffffffffff161415611bf057600b600082815260200190815260200160002060010154915050611c03565b8080600101915050611b5e565b50600090505b919050565b600081118015611c1a57506002548111155b611c2357600080fd5b6000611c2e336125a3565b905060008111611c3d57600080fd5b60076000838152602001908152602001600020600701548114611c5f57600080fd5b60026003811115611c6c57fe5b6007600084815260200190815260200160002060080160009054906101000a900460ff166003811115611c9b57fe5b14611ca557600080fd5b60036007600084815260200190815260200160002060080160006101000a81548160ff02191690836003811115611cd857fe5b02179055505050565b60015481565b60025481565b6000809054906101000a900473ffffffffffffffffffffffffffffffffffffffff1681565b60008090505b8251811015611da5576000838281518110611d2f57fe5b6020026020010151118015611d595750600154838281518110611d4e57fe5b602002602001015111155b611d98576040517f08c379a0000000000000000000000000000000000000000000000000000000008152600401611d8f90613565565b60405180910390fd5b8080600101915050611d18565b50600081118015611db857506004548111155b611df7576040517f08c379a0000000000000000000000000000000000000000000000000000000008152600401611dee90613525565b60405180910390fd5b3373ffffffffffffffffffffffffffffffffffffffff16600b600083815260200190815260200160002060000160009054906101000a900473ffffffffffffffffffffffffffffffffffffffff1673ffffffffffffffffffffffffffffffffffffffff1614611e9b576040517f08c379a0000000000000000000000000000000000000000000000000000000008152600401611e92906135e5565b60405180910390fd5b6002600081548092919060010191905055506040518061012001604052806002548152602001868152602001858152602001848152602001838152602001828152602001600081526020016000815260200160006003811115611efa57fe5b815250600760006002548152602001908152602001600020600082015181600001556020820151816001019080519060200190611f389291906128b6565b506040820151816002019080519060200190611f559291906128b6565b50606082015181600301556080820151816004019080519060200190611f7c929190612965565b5060a0820151816005015560c0820151816006015560e082015181600701556101008201518160080160006101000a81548160ff02191690836003811115611fc057fe5b02179055509050505050505050565b600b6020528060005260406000206000915090508060000160009054906101000a900473ffffffffffffffffffffffffffffffffffffffff1690806001015490806002018054600181600116156101000203166002900480601f0160208091040260200160405190810160405280929190818152602001828054600181600116156101000203166002900480156120a75780601f1061207c576101008083540402835291602001916120a7565b820191906000526020600020905b81548152906001019060200180831161208a57829003601f168201915b505050505090806003018054600181600116156101000203166002900480601f0160208091040260200160405190810160405280929190818152602001828054600181600116156101000203166002900480156121455780601f1061211a57610100808354040283529160200191612145565b820191906000526020600020905b81548152906001019060200180831161212857829003601f168201915b5050505050905084565b60035481565b6008602052806000526040600020600091509050806000015490806001018054600181600116156101000203166002900480601f0160208091040260200160405190810160405280929190818152602001828054600181600116156101000203166002900480156122075780601f106121dc57610100808354040283529160200191612207565b820191906000526020600020905b8154815290600101906020018083116121ea57829003601f168201915b505050505090806002018054600181600116156101000203166002900480601f0160208091040260200160405190810160405280929190818152602001828054600181600116156101000203166002900480156122a55780601f1061227a576101008083540402835291602001916122a5565b820191906000526020600020905b81548152906001019060200180831161228857829003601f168201915b5050505050908060030154908060040154905085565b600a6020528060005260406000206000915090508060000160009054906101000a900473ffffffffffffffffffffffffffffffffffffffff1690806001015490806002018054600181600116156101000203166002900480601f0160208091040260200160405190810160405280929190818152602001828054600181600116156101000203166002900480156123935780601f1061236857610100808354040283529160200191612393565b820191906000526020600020905b81548152906001019060200180831161237657829003601f168201915b505050505090806003018054600181600116156101000203166002900480601f0160208091040260200160405190810160405280929190818152602001828054600181600116156101000203166002900480156124315780601f1061240657610100808354040283529160200191612431565b820191906000526020600020905b81548152906001019060200180831161241457829003601f168201915b5050505050905084565b6009602052816000526040600020818154811061245457fe5b90600052602060002001600091509150505481565b600080600190505b60055481116124fb578273ffffffffffffffffffffffffffffffffffffffff16600c600083815260200190815260200160002060000160009054906101000a900473ffffffffffffffffffffffffffffffffffffffff1673ffffffffffffffffffffffffffffffffffffffff1614156124ee576001915050612501565b8080600101915050612471565b50600090505b919050565b600080600190505b6003548111612598578273ffffffffffffffffffffffffffffffffffffffff16600a600083815260200190815260200160002060000160009054906101000a900473ffffffffffffffffffffffffffffffffffffffff1673ffffffffffffffffffffffffffffffffffffffff16141561258b57600191505061259e565b808060010191505061250e565b50600090505b919050565b600080600654116125b357600080fd5b6000600190505b6006548111612659578273ffffffffffffffffffffffffffffffffffffffff16600d600083815260200190815260200160002060000160009054906101000a900473ffffffffffffffffffffffffffffffffffffffff1673ffffffffffffffffffffffffffffffffffffffff16141561264c57600d60008281526020019081526020016000206001015491505061265f565b80806001019150506125ba565b50600090505b919050565b600080600190505b60045481116126f6578273ffffffffffffffffffffffffffffffffffffffff16600b600083815260200190815260200160002060000160009054906101000a900473ffffffffffffffffffffffffffffffffffffffff1673ffffffffffffffffffffffffffffffffffffffff1614156126e95760019150506126fc565b808060010191505061266c565b50600090505b919050565b600080600190505b6006548111612793578273ffffffffffffffffffffffffffffffffffffffff16600d600083815260200190815260200160002060000160009054906101000a900473ffffffffffffffffffffffffffffffffffffffff1673ffffffffffffffffffffffffffffffffffffffff161415612786576001915050612799565b8080600101915050612709565b50600090505b919050565b600080600554116127ae57600080fd5b6000600190505b6005548111612854578273ffffffffffffffffffffffffffffffffffffffff16600c600083815260200190815260200160002060000160009054906101000a900473ffffffffffffffffffffffffffffffffffffffff1673ffffffffffffffffffffffffffffffffffffffff16141561284757600c60008281526020019081526020016000206001015491505061285a565b80806001019150506127b5565b50600090505b919050565b6040518061012001604052806000815260200160608152602001606081526020016000815260200160608152602001600081526020016000815260200160008152602001600060038111156128b057fe5b81525090565b828054600181600116156101000203166002900490600052602060002090601f016020900481019282601f106128f757805160ff1916838001178555612925565b82800160010185558215612925579182015b82811115612924578251825591602001919060010190612909565b5b50905061293291906129b2565b5090565b6040518060a0016040528060008152602001606081526020016060815260200160008152602001600081525090565b8280548282559060005260206000209081019282156129a1579160200282015b828111156129a0578251825591602001919060010190612985565b5b5090506129ae91906129b2565b5090565b6129d491905b808211156129d05760008160009055506001016129b8565b5090565b90565b6000813590506129e68161396b565b92915050565b600082601f8301126129fd57600080fd5b8135612a10612a0b8261373a565b61370d565b91508181835260208401935060208101905083856020840282011115612a3557600080fd5b60005b83811015612a655781612a4b8882612ac3565b845260208401935060208301925050600181019050612a38565b5050505092915050565b600082601f830112612a8057600080fd5b8135612a93612a8e82613762565b61370d565b91508082526020830160208301858383011115612aaf57600080fd5b612aba83828461390b565b50505092915050565b600081359050612ad281613982565b92915050565b600060208284031215612aea57600080fd5b6000612af8848285016129d7565b91505092915050565b600080600060608486031215612b1657600080fd5b6000612b24868287016129d7565b935050602084013567ffffffffffffffff811115612b4157600080fd5b612b4d86828701612a6f565b925050604084013567ffffffffffffffff811115612b6a57600080fd5b612b7686828701612a6f565b9150509250925092565b60008060408385031215612b9357600080fd5b6000612ba1858286016129d7565b9250506020612bb285828601612ac3565b9150509250929050565b600060208284031215612bce57600080fd5b600082013567ffffffffffffffff811115612be857600080fd5b612bf4848285016129ec565b91505092915050565b600080600080600060a08688031215612c1557600080fd5b600086013567ffffffffffffffff811115612c2f57600080fd5b612c3b88828901612a6f565b955050602086013567ffffffffffffffff811115612c5857600080fd5b612c6488828901612a6f565b9450506040612c7588828901612ac3565b935050606086013567ffffffffffffffff811115612c9257600080fd5b612c9e888289016129ec565b9250506080612caf88828901612ac3565b9150509295509295909350565b60008060008060808587031215612cd257600080fd5b600085013567ffffffffffffffff811115612cec57600080fd5b612cf887828801612a6f565b945050602085013567ffffffffffffffff811115612d1557600080fd5b612d2187828801612a6f565b9350506040612d3287828801612ac3565b9250506060612d4387828801612ac3565b91505092959194509250565b600060208284031215612d6157600080fd5b6000612d6f84828501612ac3565b91505092915050565b6000612d84838361325c565b905092915050565b6000612d98838361332f565b905092915050565b6000612dac83836133ac565b60208301905092915050565b612dc1816138aa565b82525050565b6000612dd2826137ce565b612ddc8185613844565b935083602082028501612dee8561378e565b8060005b85811015612e2a5784840389528151612e0b8582612d78565b9450612e1683613810565b925060208a01995050600181019050612df2565b50829750879550505050505092915050565b6000612e47826137d9565b612e518185613855565b935083602082028501612e638561379e565b8060005b85811015612e9f5784840389528151612e808582612d8c565b9450612e8b8361381d565b925060208a01995050600181019050612e67565b50829750879550505050505092915050565b6000612ebc826137ef565b612ec68185613877565b9350612ed1836137be565b8060005b83811015612f02578151612ee98882612da0565b9750612ef483613837565b925050600181019050612ed5565b5085935050505092915050565b6000612f1a826137e4565b612f248185613866565b9350612f2f836137ae565b8060005b83811015612f60578151612f478882612da0565b9750612f528361382a565b925050600181019050612f33565b5085935050505092915050565b612f76816138f9565b82525050565b612f85816138f9565b82525050565b6000612f9682613805565b612fa08185613899565b9350612fb081856020860161391a565b612fb98161394d565b840191505092915050565b6000612fcf826137fa565b612fd98185613888565b9350612fe981856020860161391a565b612ff28161394d565b840191505092915050565b6000613008826137fa565b6130128185613899565b935061302281856020860161391a565b61302b8161394d565b840191505092915050565b6000613043601f83613899565b91507f4d616e75666163747572657220616c72656164792072656769737465726564006000830152602082019050919050565b6000613083600e83613899565b91507f496e76616c6964204d414e2049440000000000000000000000000000000000006000830152602082019050919050565b60006130c3601683613899565b91507f524d5320616c72656164792072656769737465726564000000000000000000006000830152602082019050919050565b6000613103601383613899565b91507f496e76616c6964206d65646963696e65204944000000000000000000000000006000830152602082019050919050565b6000613143601b83613899565b91507f52657461696c657220616c7265616479207265676973746572656400000000006000830152602082019050919050565b6000613183601e83613899565b91507f4469737472696275746f7220616c7265616479207265676973746572656400006000830152602082019050919050565b60006131c3601583613899565b91507f4e6f2070726f647563747320617661696c61626c6500000000000000000000006000830152602082019050919050565b6000613203602a83613899565b91507f4f6e6c7920746865206d616e7566616374757265722063616e2061646420746860008301527f69732070726f64756374000000000000000000000000000000000000000000006020830152604082019050919050565b60006101208301600083015161327560008601826133ac565b506020830151848203602086015261328d8282612fc4565b915050604083015184820360408601526132a78282612fc4565b91505060608301516132bc60608601826133ac565b50608083015184820360808601526132d48282612f0f565b91505060a08301516132e960a08601826133ac565b5060c08301516132fc60c08601826133ac565b5060e083015161330f60e08601826133ac565b50610100830151613324610100860182612f6d565b508091505092915050565b600060a08301600083015161334760008601826133ac565b506020830151848203602086015261335f8282612fc4565b915050604083015184820360408601526133798282612fc4565b915050606083015161338e60608601826133ac565b5060808301516133a160808601826133ac565b508091505092915050565b6133b5816138ef565b82525050565b6133c4816138ef565b82525050565b60006020820190506133df6000830184612db8565b92915050565b60006080820190506133fa6000830187612db8565b61340760208301866133bb565b81810360408301526134198185612ffd565b9050818103606083015261342d8184612ffd565b905095945050505050565b600060208201905081810360008301526134528184612dc7565b905092915050565b600060208201905081810360008301526134748184612e3c565b905092915050565b600060208201905081810360008301526134968184612eb1565b905092915050565b600060208201905081810360008301526134b88184612f8b565b905092915050565b600060608201905081810360008301526134da8186612f8b565b905081810360208301526134ee8185612f8b565b90506134fd60408301846133bb565b949350505050565b6000602082019050818103600083015261351e81613036565b9050919050565b6000602082019050818103600083015261353e81613076565b9050919050565b6000602082019050818103600083015261355e816130b6565b9050919050565b6000602082019050818103600083015261357e816130f6565b9050919050565b6000602082019050818103600083015261359e81613136565b9050919050565b600060208201905081810360008301526135be81613176565b9050919050565b600060208201905081810360008301526135de816131b6565b9050919050565b600060208201905081810360008301526135fe816131f6565b9050919050565b600060208201905061361a60008301846133bb565b92915050565b600060a08201905061363560008301886133bb565b81810360208301526136478187612ffd565b9050818103604083015261365b8186612ffd565b905061366a60608301856133bb565b61367760808301846133bb565b9695505050505050565b600061010082019050613697600083018b6133bb565b81810360208301526136a9818a612ffd565b905081810360408301526136bd8189612ffd565b90506136cc60608301886133bb565b6136d960808301876133bb565b6136e660a08301866133bb565b6136f360c08301856133bb565b61370060e0830184612f7c565b9998505050505050505050565b6000604051905081810181811067ffffffffffffffff8211171561373057600080fd5b8060405250919050565b600067ffffffffffffffff82111561375157600080fd5b602082029050602081019050919050565b600067ffffffffffffffff82111561377957600080fd5b601f19601f8301169050602081019050919050565b6000819050602082019050919050565b6000819050602082019050919050565b6000819050602082019050919050565b6000819050602082019050919050565b600081519050919050565b600081519050919050565b600081519050919050565b600081519050919050565b600081519050919050565b600081519050919050565b6000602082019050919050565b6000602082019050919050565b6000602082019050919050565b6000602082019050919050565b600082825260208201905092915050565b600082825260208201905092915050565b600082825260208201905092915050565b600082825260208201905092915050565b600082825260208201905092915050565b600082825260208201905092915050565b60006138b5826138cf565b9050919050565b60008190506138ca8261395e565b919050565b600073ffffffffffffffffffffffffffffffffffffffff82169050919050565b6000819050919050565b6000613904826138bc565b9050919050565b82818337600083830152505050565b60005b8381101561393857808201518184015260208101905061391d565b83811115613947576000848401525b50505050565b6000601f19601f8301169050919050565b6004811061396857fe5b50565b613974816138aa565b811461397f57600080fd5b50565b61398b816138ef565b811461399657600080fd5b5056fea365627a7a723158207bd9cb7ea42f97592524812d62050dc60b9467d8d5fa1427f20fe6116bc5a6a46c6578706572696d656e74616cf564736f6c63430005100040",
  "source": "// SPDX-License-Identifier: MIT\r\npragma solidity >=0.4.22 <0.9.0;\r\npragma experimental ABIEncoderV2;\r\ncontract SupplyChain {\r\n    // Smart Contract owner will be the person who deploys the contract, only he can authorize various roles like retailer, Manufacturer, etc.\r\n    address public Owner;\r\n\r\n    constructor() public {\r\n        Owner = msg.sender;\r\n    }\r\n\r\n    modifier onlyByOwner() {\r\n        require(msg.sender == Owner);\r\n        _;\r\n    }\r\n\r\n    enum STAGE {\r\n        Manufacture,\r\n        Distribution,\r\n        Retail,\r\n        sold\r\n    }\r\n\r\n    uint256 public medicineCtr = 0;\r\n    uint256 public productCtr = 0;\r\n    uint256 public rmsCtr = 0;\r\n    uint256 public manCtr = 0;\r\n    uint256 public disCtr = 0;\r\n    uint256 public retCtr = 0;\r\n\r\n    struct medicine {\r\n        uint256 id;\r\n        string name;\r\n        string description;\r\n        uint256 price; \r\n        uint256 RMSid;\r\n    }\r\n\r\n    struct Product {\r\n        uint256 id;\r\n        string name;\r\n        string description;\r\n        uint256 price;\r\n        uint256[] medicineIds; // Liste des mdicaments associs\r\n        uint256 MANid;\r\n        uint256 DISid;\r\n        uint256 RETid;\r\n        STAGE stage;\r\n    }\r\n\r\n    mapping(uint256 => Product) public ProductStock;\r\n    mapping(uint256 => medicine) public MedicineStock;\r\n\r\n    mapping(address => uint256[]) public MedicinesByAddress; // Mapping des adresses aux identifiants des mdicaments qu'elles ont ajouts\r\n\r\n    event LogAddMedicine(string name, string description, uint256 price);\r\n\r\n    struct rawMaterialSupplier {\r\n        address addr;\r\n        uint256 id;\r\n        string name;\r\n        string place;\r\n    }\r\n\r\n    mapping(uint256 => rawMaterialSupplier) public RMS;\r\n\r\n    struct manufacturer {\r\n        address addr;\r\n        uint256 id;\r\n        string name;\r\n        string place;\r\n    }\r\n\r\n    mapping(uint256 => manufacturer) public MAN;\r\n\r\n    struct distributor {\r\n        address addr;\r\n        uint256 id;\r\n        string name;\r\n        string place;\r\n    }\r\n\r\n    mapping(uint256 => distributor) public DIS;\r\n\r\n    struct retailer {\r\n        address addr;\r\n        uint256 id;\r\n        string name;\r\n        string place;\r\n    }\r\n\r\n    mapping(uint256 => retailer) public RET;\r\n\r\n    // Add Raw Material Supplier\r\n    function addRMS(address _address, string memory _name, string memory _place) public {\r\n        require(!isRMSRegistered(_address), \"RMS already registered\");\r\n        rmsCtr++;\r\n        RMS[rmsCtr] = rawMaterialSupplier(_address, rmsCtr, _name, _place);\r\n    }\r\n\r\n    // Add Manufacturer\r\n    function addManufacturer(address _address, string memory _name, string memory _place) public {\r\n        require(!isMANRegistered(_address), \"Manufacturer already registered\");\r\n        manCtr++;\r\n        MAN[manCtr] = manufacturer(_address, manCtr, _name, _place);\r\n    }\r\n\r\n    // Add Distributor\r\n    function addDistributor(address _address, string memory _name, string memory _place) public {\r\n        require(!isDISRegistered(_address), \"Distributor already registered\");\r\n        disCtr++;\r\n        DIS[disCtr] = distributor(_address, disCtr, _name, _place);\r\n    }\r\n\r\n    // Add Retailer\r\n    function addRetailer(address _address, string memory _name, string memory _place) public {\r\n        require(!isRETRegistered(_address), \"Retailer already registered\");\r\n        retCtr++;\r\n        RET[retCtr] = retailer(_address, retCtr, _name, _place);\r\n    }\r\n\r\n    // Private helper functions to check if an address is already registered for a role\r\n    function isRMSRegistered(address _address) private view returns (bool) {\r\n        for (uint256 i = 1; i <= rmsCtr; i++) {\r\n            if (RMS[i].addr == _address) return true;\r\n        }\r\n        return false;\r\n    }\r\n\r\n    function isMANRegistered(address _address) private view returns (bool) {\r\n        for (uint256 i = 1; i <= manCtr; i++) {\r\n            if (MAN[i].addr == _address) return true;\r\n        }\r\n        return false;\r\n    }\r\n\r\n    function isDISRegistered(address _address) private view returns (bool) {\r\n        for (uint256 i = 1; i <= disCtr; i++) {\r\n            if (DIS[i].addr == _address) return true;\r\n        }\r\n        return false;\r\n    }\r\n\r\n    function isRETRegistered(address _address) private view returns (bool) {\r\n        for (uint256 i = 1; i <= retCtr; i++) {\r\n            if (RET[i].addr == _address) return true;\r\n        }\r\n        return false;\r\n    }\r\n\r\n    function findRMS(address _address) public view returns (uint256) {\r\n        require(rmsCtr > 0);\r\n        for (uint256 i = 1; i <= rmsCtr; i++) {\r\n            if (RMS[i].addr == _address) return RMS[i].id;\r\n        }\r\n        return 0;\r\n    }\r\n\r\n    function findMAN(address _address) public view returns (uint256) {\r\n        require(manCtr > 0);\r\n        for (uint256 i = 1; i <= manCtr; i++) {\r\n            if (MAN[i].addr == _address) return MAN[i].id;\r\n        }\r\n        return 0;\r\n    }\r\n\r\n    function findDIS(address _address) private view returns (uint256) {\r\n        require(disCtr > 0);\r\n        for (uint256 i = 1; i <= disCtr; i++) {\r\n            if (DIS[i].addr == _address) return DIS[i].id;\r\n        }\r\n        return 0;\r\n    }\r\n\r\n    function findRET(address _address) private view returns (uint256) {\r\n        require(retCtr > 0);\r\n        for (uint256 i = 1; i <= retCtr; i++) {\r\n            if (RET[i].addr == _address) return RET[i].id;\r\n        }\r\n        return 0;\r\n    }\r\n\r\n    // To supply products from Manufacturer to distributor\r\n    function Distribute(uint256 _produitId) public {\r\n        require(_produitId > 0 && _produitId <= productCtr);\r\n        uint256 _id = findDIS(msg.sender);\r\n        require(_id > 0);\r\n        require(ProductStock[_produitId].stage == STAGE.Manufacture);\r\n        ProductStock[_produitId].DISid = _id;\r\n        ProductStock[_produitId].stage = STAGE.Distribution;\r\n    }\r\n\r\n    // To supply products from distributor to retailer\r\n    function Retail(uint256 _produitId) public {\r\n        require(_produitId > 0 && _produitId <= productCtr);\r\n        uint256 _id = findRET(msg.sender);\r\n        require(_id > 0);\r\n        require(ProductStock[_produitId].stage == STAGE.Distribution);\r\n        ProductStock[_produitId].RETid = _id;\r\n        ProductStock[_produitId].stage = STAGE.Retail;\r\n    }\r\n\r\n    // To sell products from retailer to consumer\r\n    function sold(uint256 _produitId) public {\r\n        require(_produitId > 0 && _produitId <= productCtr);\r\n        uint256 _id = findRET(msg.sender);\r\n        require(_id > 0);\r\n        require(_id == ProductStock[_produitId].RETid);\r\n        require(ProductStock[_produitId].stage == STAGE.Retail);\r\n        ProductStock[_produitId].stage = STAGE.sold;\r\n    }\r\n\r\n    // Function to add medicine\r\n   function addMedicine(string memory _name, string memory _description, uint256 _price, uint256 _rmsId) public {\r\n    medicineCtr++;  // Incrmenter le compteur de mdicaments\r\n    MedicineStock[medicineCtr] = medicine(medicineCtr, _name, _description, _price, _rmsId);\r\n\r\n    // Ajout du mdicament  la liste des mdicaments associs  l'adresse de l'utilisateur\r\n    MedicinesByAddress[msg.sender].push(medicineCtr); // Utiliser msg.sender pour l'adresse de l'appelant\r\n\r\n    emit LogAddMedicine(_name, _description, _price);\r\n}\r\n\r\n\r\n   // Exemple de fonction de rcupration des mdicaments associs  une adresse\r\nfunction getMedicinesByAddress(address _address) public view returns (uint256[] memory) {\r\n    return MedicinesByAddress[_address];\r\n}\r\n\r\n    // Function to get the role of a specific address\r\n    function getRole(address _address) public view returns (string memory) {\r\n        if (isRMSRegistered(_address)) return \"RawMaterialSupplier\";\r\n        if (isMANRegistered(_address)) return \"Manufacturer\";\r\n        if (isDISRegistered(_address)) return \"Distributor\";\r\n        if (isRETRegistered(_address)) return \"Retailer\";\r\n        return \"None\"; // No role found\r\n    }\r\n\r\n    // Function to add a product containing multiple medicines\r\n    function addProduct(\r\n        string memory _name,\r\n        string memory _description,\r\n        uint256 _price,\r\n        uint256[] memory _medicineIds,\r\n        uint256 _MANid\r\n    ) public {\r\n        // Validate: Check that all medicines exist and are at the correct stage\r\n        for (uint256 i = 0; i < _medicineIds.length; i++) {\r\n            require(_medicineIds[i] > 0 && _medicineIds[i] <= medicineCtr, \"Invalid medicine ID\");\r\n        }\r\n        require(_MANid > 0 && _MANid <= manCtr, \"Invalid MAN ID\");\r\n        require(MAN[_MANid].addr == msg.sender, \"Only the manufacturer can add this product\");\r\n\r\n        productCtr++;\r\n        ProductStock[productCtr] = Product(\r\n            productCtr,\r\n            _name,\r\n            _description,\r\n            _price,\r\n            _medicineIds,\r\n            _MANid,\r\n            0,\r\n            0,\r\n            STAGE.Manufacture\r\n        );\r\n    }\r\n\r\nfunction getAllMedicines() public view returns (uint256[] memory) {\r\n    uint256[] memory allMedicines = new uint256[](medicineCtr);\r\n    for (uint256 i = 1; i <= medicineCtr; i++) {\r\n        allMedicines[i-1] = i;\r\n    }\r\n    return allMedicines;\r\n}\r\nfunction getMedicineDetails(uint256[] memory medicineIds) public view returns (medicine[] memory) {\r\n    medicine[] memory medicinesDetails = new medicine[](medicineIds.length);\r\n    \r\n    for (uint256 i = 0; i < medicineIds.length; i++) {\r\n        uint256 id = medicineIds[i];\r\n        require(id > 0 && id <= medicineCtr, \"Invalid medicine ID\");\r\n        medicinesDetails[i] = MedicineStock[id];\r\n    }\r\n\r\n    return medicinesDetails;\r\n}\r\n\r\nfunction getAllProducts() public view returns (Product[] memory) {\r\n    require(productCtr > 0, \"No products available\"); // Vrifie qu'il y a des produits enregistrs\r\n\r\n    Product[] memory allProducts = new Product[](productCtr);\r\n    \r\n    // Itrer  partir de 1 jusqu' productCtr\r\n    for (uint256 i = 1; i <= productCtr; i++) {\r\n        allProducts[i - 1] = ProductStock[i];  // Rcuprer chaque produit\r\n    }\r\n    \r\n    return allProducts;\r\n}\r\n\r\n\r\n}\r\n",
  "sourcePath": "C:\\Users\\J.P.M\\Documents\\anacondaProject\\Lecture 1\\Blockchain-Based-Supply-Chain\\contracts\\SupplyChain.sol",
  "compiler": {
    "name": "solc",
    "version": "0.5.16+commit.9c3226ce.Emscripten.clang"
  },
  "schemaVersion": "3.4.16",
  "updatedAt": "2024-11-20T21:36:27.873Z",
  "networkType": "ethereum",
  "devdoc": {
    "methods": {}
  },
  "userdoc": {
    "methods": {}
  }
}