{
  "contractName": "SupplyChain",
  "abi": [
    {
      "inputs": [],
      "payable": false,
      "stateMutability": "nonpayable",
      "type": "constructor"
    },
    {
      "anonymous": false,
      "inputs": [
        {
          "indexed": false,
          "internalType": "string",
          "name": "name",
          "type": "string"
        },
        {
          "indexed": false,
          "internalType": "string",
          "name": "description",
          "type": "string"
        },
        {
          "indexed": false,
          "internalType": "uint256",
          "name": "price",
          "type": "uint256"
        }
      ],
      "name": "LogAddMedicine",
      "type": "event"
    },
    {
      "constant": true,
      "inputs": [
        {
          "internalType": "uint256",
          "name": "",
          "type": "uint256"
        }
      ],
      "name": "DIS",
      "outputs": [
        {
          "internalType": "address",
          "name": "addr",
          "type": "address"
        },
        {
          "internalType": "uint256",
          "name": "id",
          "type": "uint256"
        },
        {
          "internalType": "string",
          "name": "name",
          "type": "string"
        },
        {
          "internalType": "string",
          "name": "place",
          "type": "string"
        }
      ],
      "payable": false,
      "stateMutability": "view",
      "type": "function"
    },
    {
      "constant": true,
      "inputs": [
        {
          "internalType": "uint256",
          "name": "",
          "type": "uint256"
        }
      ],
      "name": "MAN",
      "outputs": [
        {
          "internalType": "address",
          "name": "addr",
          "type": "address"
        },
        {
          "internalType": "uint256",
          "name": "id",
          "type": "uint256"
        },
        {
          "internalType": "string",
          "name": "name",
          "type": "string"
        },
        {
          "internalType": "string",
          "name": "place",
          "type": "string"
        }
      ],
      "payable": false,
      "stateMutability": "view",
      "type": "function"
    },
    {
      "constant": true,
      "inputs": [
        {
          "internalType": "uint256",
          "name": "",
          "type": "uint256"
        }
      ],
      "name": "MedicineStock",
      "outputs": [
        {
          "internalType": "uint256",
          "name": "id",
          "type": "uint256"
        },
        {
          "internalType": "string",
          "name": "name",
          "type": "string"
        },
        {
          "internalType": "string",
          "name": "description",
          "type": "string"
        },
        {
          "internalType": "uint256",
          "name": "price",
          "type": "uint256"
        },
        {
          "internalType": "uint256",
          "name": "RMSid",
          "type": "uint256"
        }
      ],
      "payable": false,
      "stateMutability": "view",
      "type": "function"
    },
    {
      "constant": true,
      "inputs": [
        {
          "internalType": "address",
          "name": "",
          "type": "address"
        },
        {
          "internalType": "uint256",
          "name": "",
          "type": "uint256"
        }
      ],
      "name": "MedicinesByAddress",
      "outputs": [
        {
          "internalType": "uint256",
          "name": "",
          "type": "uint256"
        }
      ],
      "payable": false,
      "stateMutability": "view",
      "type": "function"
    },
    {
      "constant": true,
      "inputs": [],
      "name": "Owner",
      "outputs": [
        {
          "internalType": "address",
          "name": "",
          "type": "address"
        }
      ],
      "payable": false,
      "stateMutability": "view",
      "type": "function"
    },
    {
      "constant": true,
      "inputs": [
        {
          "internalType": "uint256",
          "name": "",
          "type": "uint256"
        }
      ],
      "name": "ProductStock",
      "outputs": [
        {
          "internalType": "uint256",
          "name": "id",
          "type": "uint256"
        },
        {
          "internalType": "string",
          "name": "name",
          "type": "string"
        },
        {
          "internalType": "string",
          "name": "description",
          "type": "string"
        },
        {
          "internalType": "uint256",
          "name": "price",
          "type": "uint256"
        },
        {
          "internalType": "uint256",
          "name": "MANid",
          "type": "uint256"
        },
        {
          "internalType": "uint256",
          "name": "DISid",
          "type": "uint256"
        },
        {
          "internalType": "uint256",
          "name": "RETid",
          "type": "uint256"
        },
        {
          "internalType": "enum SupplyChain.STAGE",
          "name": "stage",
          "type": "uint8"
        }
      ],
      "payable": false,
      "stateMutability": "view",
      "type": "function"
    },
    {
      "constant": true,
      "inputs": [
        {
          "internalType": "uint256",
          "name": "",
          "type": "uint256"
        }
      ],
      "name": "RET",
      "outputs": [
        {
          "internalType": "address",
          "name": "addr",
          "type": "address"
        },
        {
          "internalType": "uint256",
          "name": "id",
          "type": "uint256"
        },
        {
          "internalType": "string",
          "name": "name",
          "type": "string"
        },
        {
          "internalType": "string",
          "name": "place",
          "type": "string"
        }
      ],
      "payable": false,
      "stateMutability": "view",
      "type": "function"
    },
    {
      "constant": true,
      "inputs": [
        {
          "internalType": "uint256",
          "name": "",
          "type": "uint256"
        }
      ],
      "name": "RMS",
      "outputs": [
        {
          "internalType": "address",
          "name": "addr",
          "type": "address"
        },
        {
          "internalType": "uint256",
          "name": "id",
          "type": "uint256"
        },
        {
          "internalType": "string",
          "name": "name",
          "type": "string"
        },
        {
          "internalType": "string",
          "name": "place",
          "type": "string"
        }
      ],
      "payable": false,
      "stateMutability": "view",
      "type": "function"
    },
    {
      "constant": true,
      "inputs": [],
      "name": "disCtr",
      "outputs": [
        {
          "internalType": "uint256",
          "name": "",
          "type": "uint256"
        }
      ],
      "payable": false,
      "stateMutability": "view",
      "type": "function"
    },
    {
      "constant": true,
      "inputs": [],
      "name": "manCtr",
      "outputs": [
        {
          "internalType": "uint256",
          "name": "",
          "type": "uint256"
        }
      ],
      "payable": false,
      "stateMutability": "view",
      "type": "function"
    },
    {
      "constant": true,
      "inputs": [],
      "name": "medicineCtr",
      "outputs": [
        {
          "internalType": "uint256",
          "name": "",
          "type": "uint256"
        }
      ],
      "payable": false,
      "stateMutability": "view",
      "type": "function"
    },
    {
      "constant": true,
      "inputs": [],
      "name": "productCtr",
      "outputs": [
        {
          "internalType": "uint256",
          "name": "",
          "type": "uint256"
        }
      ],
      "payable": false,
      "stateMutability": "view",
      "type": "function"
    },
    {
      "constant": true,
      "inputs": [],
      "name": "retCtr",
      "outputs": [
        {
          "internalType": "uint256",
          "name": "",
          "type": "uint256"
        }
      ],
      "payable": false,
      "stateMutability": "view",
      "type": "function"
    },
    {
      "constant": true,
      "inputs": [],
      "name": "rmsCtr",
      "outputs": [
        {
          "internalType": "uint256",
          "name": "",
          "type": "uint256"
        }
      ],
      "payable": false,
      "stateMutability": "view",
      "type": "function"
    },
    {
      "constant": false,
      "inputs": [
        {
          "internalType": "address",
          "name": "_address",
          "type": "address"
        },
        {
          "internalType": "string",
          "name": "_name",
          "type": "string"
        },
        {
          "internalType": "string",
          "name": "_place",
          "type": "string"
        }
      ],
      "name": "addRMS",
      "outputs": [],
      "payable": false,
      "stateMutability": "nonpayable",
      "type": "function"
    },
    {
      "constant": false,
      "inputs": [
        {
          "internalType": "address",
          "name": "_address",
          "type": "address"
        },
        {
          "internalType": "string",
          "name": "_name",
          "type": "string"
        },
        {
          "internalType": "string",
          "name": "_place",
          "type": "string"
        }
      ],
      "name": "addManufacturer",
      "outputs": [],
      "payable": false,
      "stateMutability": "nonpayable",
      "type": "function"
    },
    {
      "constant": false,
      "inputs": [
        {
          "internalType": "address",
          "name": "_address",
          "type": "address"
        },
        {
          "internalType": "string",
          "name": "_name",
          "type": "string"
        },
        {
          "internalType": "string",
          "name": "_place",
          "type": "string"
        }
      ],
      "name": "addDistributor",
      "outputs": [],
      "payable": false,
      "stateMutability": "nonpayable",
      "type": "function"
    },
    {
      "constant": false,
      "inputs": [
        {
          "internalType": "address",
          "name": "_address",
          "type": "address"
        },
        {
          "internalType": "string",
          "name": "_name",
          "type": "string"
        },
        {
          "internalType": "string",
          "name": "_place",
          "type": "string"
        }
      ],
      "name": "addRetailer",
      "outputs": [],
      "payable": false,
      "stateMutability": "nonpayable",
      "type": "function"
    },
    {
      "constant": true,
      "inputs": [
        {
          "internalType": "address",
          "name": "_address",
          "type": "address"
        }
      ],
      "name": "findRMS",
      "outputs": [
        {
          "internalType": "uint256",
          "name": "",
          "type": "uint256"
        }
      ],
      "payable": false,
      "stateMutability": "view",
      "type": "function"
    },
    {
      "constant": true,
      "inputs": [
        {
          "internalType": "address",
          "name": "_address",
          "type": "address"
        }
      ],
      "name": "findMAN",
      "outputs": [
        {
          "internalType": "uint256",
          "name": "",
          "type": "uint256"
        }
      ],
      "payable": false,
      "stateMutability": "view",
      "type": "function"
    },
    {
      "constant": false,
      "inputs": [
        {
          "internalType": "uint256",
          "name": "_produitId",
          "type": "uint256"
        }
      ],
      "name": "Distribute",
      "outputs": [],
      "payable": false,
      "stateMutability": "nonpayable",
      "type": "function"
    },
    {
      "constant": false,
      "inputs": [
        {
          "internalType": "uint256",
          "name": "_produitId",
          "type": "uint256"
        }
      ],
      "name": "Retail",
      "outputs": [],
      "payable": false,
      "stateMutability": "nonpayable",
      "type": "function"
    },
    {
      "constant": false,
      "inputs": [
        {
          "internalType": "uint256",
          "name": "_produitId",
          "type": "uint256"
        }
      ],
      "name": "sold",
      "outputs": [],
      "payable": false,
      "stateMutability": "nonpayable",
      "type": "function"
    },
    {
      "constant": false,
      "inputs": [
        {
          "internalType": "string",
          "name": "_name",
          "type": "string"
        },
        {
          "internalType": "string",
          "name": "_description",
          "type": "string"
        },
        {
          "internalType": "uint256",
          "name": "_price",
          "type": "uint256"
        },
        {
          "internalType": "uint256",
          "name": "_rmsId",
          "type": "uint256"
        }
      ],
      "name": "addMedicine",
      "outputs": [],
      "payable": false,
      "stateMutability": "nonpayable",
      "type": "function"
    },
    {
      "constant": true,
      "inputs": [
        {
          "internalType": "address",
          "name": "_address",
          "type": "address"
        }
      ],
      "name": "getMedicinesByAddress",
      "outputs": [
        {
          "internalType": "uint256[]",
          "name": "",
          "type": "uint256[]"
        }
      ],
      "payable": false,
      "stateMutability": "view",
      "type": "function"
    },
    {
      "constant": true,
      "inputs": [
        {
          "internalType": "address",
          "name": "_address",
          "type": "address"
        }
      ],
      "name": "getRole",
      "outputs": [
        {
          "internalType": "string",
          "name": "",
          "type": "string"
        }
      ],
      "payable": false,
      "stateMutability": "view",
      "type": "function"
    },
    {
      "constant": false,
      "inputs": [
        {
          "internalType": "string",
          "name": "_name",
          "type": "string"
        },
        {
          "internalType": "string",
          "name": "_description",
          "type": "string"
        },
        {
          "internalType": "uint256",
          "name": "_price",
          "type": "uint256"
        },
        {
          "internalType": "uint256[]",
          "name": "_medicineIds",
          "type": "uint256[]"
        },
        {
          "internalType": "uint256",
          "name": "_MANid",
          "type": "uint256"
        }
      ],
      "name": "addProduct",
      "outputs": [],
      "payable": false,
      "stateMutability": "nonpayable",
      "type": "function"
    },
    {
      "constant": true,
      "inputs": [],
      "name": "getAllMedicines",
      "outputs": [
        {
          "internalType": "uint256[]",
          "name": "",
          "type": "uint256[]"
        }
      ],
      "payable": false,
      "stateMutability": "view",
      "type": "function"
    },
    {
      "constant": true,
      "inputs": [
        {
          "internalType": "uint256[]",
          "name": "medicineIds",
          "type": "uint256[]"
        }
      ],
      "name": "getMedicineDetails",
      "outputs": [
        {
          "components": [
            {
              "internalType": "uint256",
              "name": "id",
              "type": "uint256"
            },
            {
              "internalType": "string",
              "name": "name",
              "type": "string"
            },
            {
              "internalType": "string",
              "name": "description",
              "type": "string"
            },
            {
              "internalType": "uint256",
              "name": "price",
              "type": "uint256"
            },
            {
              "internalType": "uint256",
              "name": "RMSid",
              "type": "uint256"
            }
          ],
          "internalType": "struct SupplyChain.medicine[]",
          "name": "",
          "type": "tuple[]"
        }
      ],
      "payable": false,
      "stateMutability": "view",
      "type": "function"
    }
  ],
  "bytecode": "0x608060405260006001556000600255600060035560006004556000600555600060065534801561002e57600080fd5b50336000806101000a81548173ffffffffffffffffffffffffffffffffffffffff021916908373ffffffffffffffffffffffffffffffffffffffff1602179055506133be8061007e6000396000f3fe608060405234801561001057600080fd5b50600436106101cf5760003560e01c806368f2b1d211610104578063aaea34aa116100a2578063dd28639811610071578063dd28639814610562578063eb1a06b514610580578063eef5cb40146105b4578063f017afc8146105e7576101cf565b8063aaea34aa146104d7578063b4a99a4e146104f5578063c4a07fd114610513578063cc4030691461052f576101cf565b8063857ddb04116100de578063857ddb041461045157806390d097381461046d5780639c03facb1461049d578063a95f29d9146104b9576101cf565b806368f2b1d2146103f95780636a992c9f146104175780637e43d94d14610433576101cf565b80633d753a1c116101715780634def474a1161014b5780634def474a146103435780635573d8b21461035f578063575675141461039657806359bf286f146103c6576101cf565b80633d753a1c146102d9578063438e9c4d146102f55780634427673314610313576101cf565b80632b0187ac116101ad5780632b0187ac146102505780632b70b08d146102835780632ba25bdc1461029f5780632bdb2e6b146102bb576101cf565b806311f0307d146101d45780631768c625146102045780632a4af44014610234575b600080fd5b6101ee60048036036101e99190810190612777565b610617565b6040516101fb9190612ef0565b60405180910390f35b61021e60048036036102199190810190612777565b6106ae565b60405161022b9190613059565b60405180910390f35b61024e600480360361024991908101906127a0565b61076f565b005b61026a600480360361026591908101906129ee565b6108ab565b60405161027a9493929190612e7b565b60405180910390f35b61029d600480360361029891908101906127a0565b610a2b565b005b6102b960048036036102b4919081019061295b565b610b67565b005b6102c3610cbe565b6040516102d09190613059565b60405180910390f35b6102f360048036036102ee91908101906129ee565b610cc4565b005b6102fd610d96565b60405161030a9190613059565b60405180910390f35b61032d60048036036103289190810190612777565b610d9c565b60405161033a9190612f12565b60405180910390f35b61035d600480360361035891908101906129ee565b610f08565b005b610379600480360361037491908101906129ee565b610fda565b60405161038d9897969594939291906130d5565b60405180910390f35b6103b060048036036103ab919081019061285b565b61115f565b6040516103bd9190612ece565b60405180910390f35b6103e060048036036103db91908101906129ee565b6113c7565b6040516103f09493929190612e7b565b60405180910390f35b610401611547565b60405161040e9190612ef0565b60405180910390f35b610431600480360361042c91908101906127a0565b6115bf565b005b61043b6116fb565b6040516104489190613059565b60405180910390f35b61046b600480360361046691908101906127a0565b611701565b005b61048760048036036104829190810190612777565b61183d565b6040516104949190613059565b60405180910390f35b6104b760048036036104b291908101906129ee565b6118fe565b005b6104c16119d7565b6040516104ce9190613059565b60405180910390f35b6104df6119dd565b6040516104ec9190613059565b60405180910390f35b6104fd6119e3565b60405161050a9190612e60565b60405180910390f35b61052d6004803603610528919081019061289c565b611a08565b005b610549600480360361054491908101906129ee565b611cc5565b6040516105599493929190612e7b565b60405180910390f35b61056a611e45565b6040516105779190613059565b60405180910390f35b61059a600480360361059591908101906129ee565b611e4b565b6040516105ab959493929190613074565b60405180910390f35b6105ce60048036036105c991908101906129ee565b611fb1565b6040516105de9493929190612e7b565b60405180910390f35b61060160048036036105fc919081019061281f565b612131565b60405161060e9190613059565b60405180910390f35b6060600960008373ffffffffffffffffffffffffffffffffffffffff1673ffffffffffffffffffffffffffffffffffffffff1681526020019081526020016000208054806020026020016040519081016040528092919081815260200182805480156106a257602002820191906000526020600020905b81548152602001906001019080831161068e575b50505050509050919050565b600080600354116106be57600080fd5b6000600190505b6003548111610764578273ffffffffffffffffffffffffffffffffffffffff16600a600083815260200190815260200160002060000160009054906101000a900473ffffffffffffffffffffffffffffffffffffffff1673ffffffffffffffffffffffffffffffffffffffff16141561075757600a60008281526020019081526020016000206001015491505061076a565b80806001019150506106c5565b50600090505b919050565b6107788361215f565b156107b8576040517f08c379a00000000000000000000000000000000000000000000000000000000081526004016107af90613019565b60405180910390fd5b60056000815480929190600101919050555060405180608001604052808473ffffffffffffffffffffffffffffffffffffffff168152602001600554815260200183815260200182815250600c6000600554815260200190815260200160002060008201518160000160006101000a81548173ffffffffffffffffffffffffffffffffffffffff021916908373ffffffffffffffffffffffffffffffffffffffff160217905550602082015181600101556040820151816002019080519060200190610885929190612555565b5060608201518160030190805190602001906108a2929190612555565b50905050505050565b600c6020528060005260406000206000915090508060000160009054906101000a900473ffffffffffffffffffffffffffffffffffffffff1690806001015490806002018054600181600116156101000203166002900480601f0160208091040260200160405190810160405280929190818152602001828054600181600116156101000203166002900480156109835780601f1061095857610100808354040283529160200191610983565b820191906000526020600020905b81548152906001019060200180831161096657829003601f168201915b505050505090806003018054600181600116156101000203166002900480601f016020809104026020016040519081016040528092919081815260200182805460018160011615610100020316600290048015610a215780601f106109f657610100808354040283529160200191610a21565b820191906000526020600020905b815481529060010190602001808311610a0457829003601f168201915b5050505050905084565b610a34836121fc565b15610a74576040517f08c379a0000000000000000000000000000000000000000000000000000000008152600401610a6b90612fb9565b60405180910390fd5b60036000815480929190600101919050555060405180608001604052808473ffffffffffffffffffffffffffffffffffffffff168152602001600354815260200183815260200182815250600a6000600354815260200190815260200160002060008201518160000160006101000a81548173ffffffffffffffffffffffffffffffffffffffff021916908373ffffffffffffffffffffffffffffffffffffffff160217905550602082015181600101556040820151816002019080519060200190610b41929190612555565b506060820151816003019080519060200190610b5e929190612555565b50905050505050565b6001600081548092919060010191905055506040518060a00160405280600154815260200185815260200184815260200183815260200182815250600860006001548152602001908152602001600020600082015181600001556020820151816001019080519060200190610bdd929190612555565b506040820151816002019080519060200190610bfa929190612555565b506060820151816003015560808201518160040155905050600960003373ffffffffffffffffffffffffffffffffffffffff1673ffffffffffffffffffffffffffffffffffffffff16815260200190815260200160002060015490806001815401808255809150509060018203906000526020600020016000909192909190915055507f6832897766ef6c55d2c5dc0020ee560a56f64f8b1153156e169221d107c7a1ce848484604051610cb093929190612f34565b60405180910390a150505050565b60055481565b600081118015610cd657506002548111155b610cdf57600080fd5b6000610cea33612299565b905060008111610cf957600080fd5b60016003811115610d0657fe5b6007600084815260200190815260200160002060080160009054906101000a900460ff166003811115610d3557fe5b14610d3f57600080fd5b80600760008481526020019081526020016000206007018190555060026007600084815260200190815260200160002060080160006101000a81548160ff02191690836003811115610d8d57fe5b02179055505050565b60045481565b6060610da7826121fc565b15610de9576040518060400160405280601381526020017f5261774d6174657269616c537570706c696572000000000000000000000000008152509050610f03565b610df28261235a565b15610e34576040518060400160405280600c81526020017f4d616e75666163747572657200000000000000000000000000000000000000008152509050610f03565b610e3d8261215f565b15610e7f576040518060400160405280600b81526020017f4469737472696275746f720000000000000000000000000000000000000000008152509050610f03565b610e88826123f7565b15610eca576040518060400160405280600881526020017f52657461696c65720000000000000000000000000000000000000000000000008152509050610f03565b6040518060400160405280600481526020017f4e6f6e650000000000000000000000000000000000000000000000000000000081525090505b919050565b600081118015610f1a57506002548111155b610f2357600080fd5b6000610f2e33612494565b905060008111610f3d57600080fd5b60006003811115610f4a57fe5b6007600084815260200190815260200160002060080160009054906101000a900460ff166003811115610f7957fe5b14610f8357600080fd5b80600760008481526020019081526020016000206006018190555060016007600084815260200190815260200160002060080160006101000a81548160ff02191690836003811115610fd157fe5b02179055505050565b6007602052806000526040600020600091509050806000015490806001018054600181600116156101000203166002900480601f01602080910402602001604051908101604052809291908181526020018280546001816001161561010002031660029004801561108c5780601f106110615761010080835404028352916020019161108c565b820191906000526020600020905b81548152906001019060200180831161106f57829003601f168201915b505050505090806002018054600181600116156101000203166002900480601f01602080910402602001604051908101604052809291908181526020018280546001816001161561010002031660029004801561112a5780601f106110ff5761010080835404028352916020019161112a565b820191906000526020600020905b81548152906001019060200180831161110d57829003601f168201915b5050505050908060030154908060050154908060060154908060070154908060080160009054906101000a900460ff16905088565b606080825160405190808252806020026020018201604052801561119d57816020015b61118a6125d5565b8152602001906001900390816111825790505b50905060008090505b83518110156113bd5760008482815181106111bd57fe5b602002602001015190506000811180156111d957506001548111155b611218576040517f08c379a000000000000000000000000000000000000000000000000000000000815260040161120f90612fd9565b60405180910390fd5b600860008281526020019081526020016000206040518060a001604052908160008201548152602001600182018054600181600116156101000203166002900480601f0160208091040260200160405190810160405280929190818152602001828054600181600116156101000203166002900480156112d95780601f106112ae576101008083540402835291602001916112d9565b820191906000526020600020905b8154815290600101906020018083116112bc57829003601f168201915b50505050508152602001600282018054600181600116156101000203166002900480601f01602080910402602001604051908101604052809291908181526020018280546001816001161561010002031660029004801561137b5780601f106113505761010080835404028352916020019161137b565b820191906000526020600020905b81548152906001019060200180831161135e57829003601f168201915b50505050508152602001600382015481526020016004820154815250508383815181106113a457fe5b60200260200101819052505080806001019150506111a6565b5080915050919050565b600d6020528060005260406000206000915090508060000160009054906101000a900473ffffffffffffffffffffffffffffffffffffffff1690806001015490806002018054600181600116156101000203166002900480601f01602080910402602001604051908101604052809291908181526020018280546001816001161561010002031660029004801561149f5780601f106114745761010080835404028352916020019161149f565b820191906000526020600020905b81548152906001019060200180831161148257829003601f168201915b505050505090806003018054600181600116156101000203166002900480601f01602080910402602001604051908101604052809291908181526020018280546001816001161561010002031660029004801561153d5780601f106115125761010080835404028352916020019161153d565b820191906000526020600020905b81548152906001019060200180831161152057829003601f168201915b5050505050905084565b60608060015460405190808252806020026020018201604052801561157b5781602001602082028038833980820191505090505b5090506000600190505b60015481116115b7578082600183038151811061159e57fe5b6020026020010181815250508080600101915050611585565b508091505090565b6115c88361235a565b15611608576040517f08c379a00000000000000000000000000000000000000000000000000000000081526004016115ff90612f79565b60405180910390fd5b60046000815480929190600101919050555060405180608001604052808473ffffffffffffffffffffffffffffffffffffffff168152602001600454815260200183815260200182815250600b6000600454815260200190815260200160002060008201518160000160006101000a81548173ffffffffffffffffffffffffffffffffffffffff021916908373ffffffffffffffffffffffffffffffffffffffff1602179055506020820151816001015560408201518160020190805190602001906116d5929190612555565b5060608201518160030190805190602001906116f2929190612555565b50905050505050565b60065481565b61170a836123f7565b1561174a576040517f08c379a000000000000000000000000000000000000000000000000000000000815260040161174190612ff9565b60405180910390fd5b60066000815480929190600101919050555060405180608001604052808473ffffffffffffffffffffffffffffffffffffffff168152602001600654815260200183815260200182815250600d6000600654815260200190815260200160002060008201518160000160006101000a81548173ffffffffffffffffffffffffffffffffffffffff021916908373ffffffffffffffffffffffffffffffffffffffff160217905550602082015181600101556040820151816002019080519060200190611817929190612555565b506060820151816003019080519060200190611834929190612555565b50905050505050565b6000806004541161184d57600080fd5b6000600190505b60045481116118f3578273ffffffffffffffffffffffffffffffffffffffff16600b600083815260200190815260200160002060000160009054906101000a900473ffffffffffffffffffffffffffffffffffffffff1673ffffffffffffffffffffffffffffffffffffffff1614156118e657600b6000828152602001908152602001600020600101549150506118f9565b8080600101915050611854565b50600090505b919050565b60008111801561191057506002548111155b61191957600080fd5b600061192433612299565b90506000811161193357600080fd5b6007600083815260200190815260200160002060070154811461195557600080fd5b6002600381111561196257fe5b6007600084815260200190815260200160002060080160009054906101000a900460ff16600381111561199157fe5b1461199b57600080fd5b60036007600084815260200190815260200160002060080160006101000a81548160ff021916908360038111156119ce57fe5b02179055505050565b60015481565b60025481565b6000809054906101000a900473ffffffffffffffffffffffffffffffffffffffff1681565b60008090505b8251811015611a9b576000838281518110611a2557fe5b6020026020010151118015611a4f5750600154838281518110611a4457fe5b602002602001015111155b611a8e576040517f08c379a0000000000000000000000000000000000000000000000000000000008152600401611a8590612fd9565b60405180910390fd5b8080600101915050611a0e565b50600081118015611aae57506004548111155b611aed576040517f08c379a0000000000000000000000000000000000000000000000000000000008152600401611ae490612f99565b60405180910390fd5b3373ffffffffffffffffffffffffffffffffffffffff16600b600083815260200190815260200160002060000160009054906101000a900473ffffffffffffffffffffffffffffffffffffffff1673ffffffffffffffffffffffffffffffffffffffff1614611b91576040517f08c379a0000000000000000000000000000000000000000000000000000000008152600401611b8890613039565b60405180910390fd5b6002600081548092919060010191905055506040518061012001604052806002548152602001868152602001858152602001848152602001838152602001828152602001600081526020016000815260200160006003811115611bf057fe5b815250600760006002548152602001908152602001600020600082015181600001556020820151816001019080519060200190611c2e929190612555565b506040820151816002019080519060200190611c4b929190612555565b50606082015181600301556080820151816004019080519060200190611c72929190612604565b5060a0820151816005015560c0820151816006015560e082015181600701556101008201518160080160006101000a81548160ff02191690836003811115611cb657fe5b02179055509050505050505050565b600b6020528060005260406000206000915090508060000160009054906101000a900473ffffffffffffffffffffffffffffffffffffffff1690806001015490806002018054600181600116156101000203166002900480601f016020809104026020016040519081016040528092919081815260200182805460018160011615610100020316600290048015611d9d5780601f10611d7257610100808354040283529160200191611d9d565b820191906000526020600020905b815481529060010190602001808311611d8057829003601f168201915b505050505090806003018054600181600116156101000203166002900480601f016020809104026020016040519081016040528092919081815260200182805460018160011615610100020316600290048015611e3b5780601f10611e1057610100808354040283529160200191611e3b565b820191906000526020600020905b815481529060010190602001808311611e1e57829003601f168201915b5050505050905084565b60035481565b6008602052806000526040600020600091509050806000015490806001018054600181600116156101000203166002900480601f016020809104026020016040519081016040528092919081815260200182805460018160011615610100020316600290048015611efd5780601f10611ed257610100808354040283529160200191611efd565b820191906000526020600020905b815481529060010190602001808311611ee057829003601f168201915b505050505090806002018054600181600116156101000203166002900480601f016020809104026020016040519081016040528092919081815260200182805460018160011615610100020316600290048015611f9b5780601f10611f7057610100808354040283529160200191611f9b565b820191906000526020600020905b815481529060010190602001808311611f7e57829003601f168201915b5050505050908060030154908060040154905085565b600a6020528060005260406000206000915090508060000160009054906101000a900473ffffffffffffffffffffffffffffffffffffffff1690806001015490806002018054600181600116156101000203166002900480601f0160208091040260200160405190810160405280929190818152602001828054600181600116156101000203166002900480156120895780601f1061205e57610100808354040283529160200191612089565b820191906000526020600020905b81548152906001019060200180831161206c57829003601f168201915b505050505090806003018054600181600116156101000203166002900480601f0160208091040260200160405190810160405280929190818152602001828054600181600116156101000203166002900480156121275780601f106120fc57610100808354040283529160200191612127565b820191906000526020600020905b81548152906001019060200180831161210a57829003601f168201915b5050505050905084565b6009602052816000526040600020818154811061214a57fe5b90600052602060002001600091509150505481565b600080600190505b60055481116121f1578273ffffffffffffffffffffffffffffffffffffffff16600c600083815260200190815260200160002060000160009054906101000a900473ffffffffffffffffffffffffffffffffffffffff1673ffffffffffffffffffffffffffffffffffffffff1614156121e45760019150506121f7565b8080600101915050612167565b50600090505b919050565b600080600190505b600354811161228e578273ffffffffffffffffffffffffffffffffffffffff16600a600083815260200190815260200160002060000160009054906101000a900473ffffffffffffffffffffffffffffffffffffffff1673ffffffffffffffffffffffffffffffffffffffff161415612281576001915050612294565b8080600101915050612204565b50600090505b919050565b600080600654116122a957600080fd5b6000600190505b600654811161234f578273ffffffffffffffffffffffffffffffffffffffff16600d600083815260200190815260200160002060000160009054906101000a900473ffffffffffffffffffffffffffffffffffffffff1673ffffffffffffffffffffffffffffffffffffffff16141561234257600d600082815260200190815260200160002060010154915050612355565b80806001019150506122b0565b50600090505b919050565b600080600190505b60045481116123ec578273ffffffffffffffffffffffffffffffffffffffff16600b600083815260200190815260200160002060000160009054906101000a900473ffffffffffffffffffffffffffffffffffffffff1673ffffffffffffffffffffffffffffffffffffffff1614156123df5760019150506123f2565b8080600101915050612362565b50600090505b919050565b600080600190505b6006548111612489578273ffffffffffffffffffffffffffffffffffffffff16600d600083815260200190815260200160002060000160009054906101000a900473ffffffffffffffffffffffffffffffffffffffff1673ffffffffffffffffffffffffffffffffffffffff16141561247c57600191505061248f565b80806001019150506123ff565b50600090505b919050565b600080600554116124a457600080fd5b6000600190505b600554811161254a578273ffffffffffffffffffffffffffffffffffffffff16600c600083815260200190815260200160002060000160009054906101000a900473ffffffffffffffffffffffffffffffffffffffff1673ffffffffffffffffffffffffffffffffffffffff16141561253d57600c600082815260200190815260200160002060010154915050612550565b80806001019150506124ab565b50600090505b919050565b828054600181600116156101000203166002900490600052602060002090601f016020900481019282601f1061259657805160ff19168380011785556125c4565b828001600101855582156125c4579182015b828111156125c35782518255916020019190600101906125a8565b5b5090506125d19190612651565b5090565b6040518060a0016040528060008152602001606081526020016060815260200160008152602001600081525090565b828054828255906000526020600020908101928215612640579160200282015b8281111561263f578251825591602001919060010190612624565b5b50905061264d9190612651565b5090565b61267391905b8082111561266f576000816000905550600101612657565b5090565b90565b6000813590506126858161334d565b92915050565b600082601f83011261269c57600080fd5b81356126af6126aa8261318e565b613161565b915081818352602084019350602081019050838560208402820111156126d457600080fd5b60005b8381101561270457816126ea8882612762565b8452602084019350602083019250506001810190506126d7565b5050505092915050565b600082601f83011261271f57600080fd5b813561273261272d826131b6565b613161565b9150808252602083016020830185838301111561274e57600080fd5b6127598382846132ed565b50505092915050565b60008135905061277181613364565b92915050565b60006020828403121561278957600080fd5b600061279784828501612676565b91505092915050565b6000806000606084860312156127b557600080fd5b60006127c386828701612676565b935050602084013567ffffffffffffffff8111156127e057600080fd5b6127ec8682870161270e565b925050604084013567ffffffffffffffff81111561280957600080fd5b6128158682870161270e565b9150509250925092565b6000806040838503121561283257600080fd5b600061284085828601612676565b925050602061285185828601612762565b9150509250929050565b60006020828403121561286d57600080fd5b600082013567ffffffffffffffff81111561288757600080fd5b6128938482850161268b565b91505092915050565b600080600080600060a086880312156128b457600080fd5b600086013567ffffffffffffffff8111156128ce57600080fd5b6128da8882890161270e565b955050602086013567ffffffffffffffff8111156128f757600080fd5b6129038882890161270e565b945050604061291488828901612762565b935050606086013567ffffffffffffffff81111561293157600080fd5b61293d8882890161268b565b925050608061294e88828901612762565b9150509295509295909350565b6000806000806080858703121561297157600080fd5b600085013567ffffffffffffffff81111561298b57600080fd5b6129978782880161270e565b945050602085013567ffffffffffffffff8111156129b457600080fd5b6129c08782880161270e565b93505060406129d187828801612762565b92505060606129e287828801612762565b91505092959194509250565b600060208284031215612a0057600080fd5b6000612a0e84828501612762565b91505092915050565b6000612a238383612dc5565b905092915050565b6000612a378383612e42565b60208301905092915050565b612a4c8161328c565b82525050565b6000612a5d82613202565b612a678185613248565b935083602082028501612a79856131e2565b8060005b85811015612ab55784840389528151612a968582612a17565b9450612aa18361322e565b925060208a01995050600181019050612a7d565b50829750879550505050505092915050565b6000612ad28261320d565b612adc8185613259565b9350612ae7836131f2565b8060005b83811015612b18578151612aff8882612a2b565b9750612b0a8361323b565b925050600181019050612aeb565b5085935050505092915050565b612b2e816132db565b82525050565b6000612b3f82613223565b612b49818561327b565b9350612b598185602086016132fc565b612b628161332f565b840191505092915050565b6000612b7882613218565b612b82818561326a565b9350612b928185602086016132fc565b612b9b8161332f565b840191505092915050565b6000612bb182613218565b612bbb818561327b565b9350612bcb8185602086016132fc565b612bd48161332f565b840191505092915050565b6000612bec601f8361327b565b91507f4d616e75666163747572657220616c72656164792072656769737465726564006000830152602082019050919050565b6000612c2c600e8361327b565b91507f496e76616c6964204d414e2049440000000000000000000000000000000000006000830152602082019050919050565b6000612c6c60168361327b565b91507f524d5320616c72656164792072656769737465726564000000000000000000006000830152602082019050919050565b6000612cac60138361327b565b91507f496e76616c6964206d65646963696e65204944000000000000000000000000006000830152602082019050919050565b6000612cec601b8361327b565b91507f52657461696c657220616c7265616479207265676973746572656400000000006000830152602082019050919050565b6000612d2c601e8361327b565b91507f4469737472696275746f7220616c7265616479207265676973746572656400006000830152602082019050919050565b6000612d6c602a8361327b565b91507f4f6e6c7920746865206d616e7566616374757265722063616e2061646420746860008301527f69732070726f64756374000000000000000000000000000000000000000000006020830152604082019050919050565b600060a083016000830151612ddd6000860182612e42565b5060208301518482036020860152612df58282612b6d565b91505060408301518482036040860152612e0f8282612b6d565b9150506060830151612e246060860182612e42565b506080830151612e376080860182612e42565b508091505092915050565b612e4b816132d1565b82525050565b612e5a816132d1565b82525050565b6000602082019050612e756000830184612a43565b92915050565b6000608082019050612e906000830187612a43565b612e9d6020830186612e51565b8181036040830152612eaf8185612ba6565b90508181036060830152612ec38184612ba6565b905095945050505050565b60006020820190508181036000830152612ee88184612a52565b905092915050565b60006020820190508181036000830152612f0a8184612ac7565b905092915050565b60006020820190508181036000830152612f2c8184612b34565b905092915050565b60006060820190508181036000830152612f4e8186612b34565b90508181036020830152612f628185612b34565b9050612f716040830184612e51565b949350505050565b60006020820190508181036000830152612f9281612bdf565b9050919050565b60006020820190508181036000830152612fb281612c1f565b9050919050565b60006020820190508181036000830152612fd281612c5f565b9050919050565b60006020820190508181036000830152612ff281612c9f565b9050919050565b6000602082019050818103600083015261301281612cdf565b9050919050565b6000602082019050818103600083015261303281612d1f565b9050919050565b6000602082019050818103600083015261305281612d5f565b9050919050565b600060208201905061306e6000830184612e51565b92915050565b600060a0820190506130896000830188612e51565b818103602083015261309b8187612ba6565b905081810360408301526130af8186612ba6565b90506130be6060830185612e51565b6130cb6080830184612e51565b9695505050505050565b6000610100820190506130eb600083018b612e51565b81810360208301526130fd818a612ba6565b905081810360408301526131118189612ba6565b90506131206060830188612e51565b61312d6080830187612e51565b61313a60a0830186612e51565b61314760c0830185612e51565b61315460e0830184612b25565b9998505050505050505050565b6000604051905081810181811067ffffffffffffffff8211171561318457600080fd5b8060405250919050565b600067ffffffffffffffff8211156131a557600080fd5b602082029050602081019050919050565b600067ffffffffffffffff8211156131cd57600080fd5b601f19601f8301169050602081019050919050565b6000819050602082019050919050565b6000819050602082019050919050565b600081519050919050565b600081519050919050565b600081519050919050565b600081519050919050565b6000602082019050919050565b6000602082019050919050565b600082825260208201905092915050565b600082825260208201905092915050565b600082825260208201905092915050565b600082825260208201905092915050565b6000613297826132b1565b9050919050565b60008190506132ac82613340565b919050565b600073ffffffffffffffffffffffffffffffffffffffff82169050919050565b6000819050919050565b60006132e68261329e565b9050919050565b82818337600083830152505050565b60005b8381101561331a5780820151818401526020810190506132ff565b83811115613329576000848401525b50505050565b6000601f19601f8301169050919050565b6004811061334a57fe5b50565b6133568161328c565b811461336157600080fd5b50565b61336d816132d1565b811461337857600080fd5b5056fea365627a7a72315820396226bb35c648250b43701380b5b4676e28c442e598ba5fc91d704df44e7dcd6c6578706572696d656e74616cf564736f6c63430005100040",
  "source": "// SPDX-License-Identifier: MIT\r\npragma solidity >=0.4.22 <0.9.0;\r\npragma experimental ABIEncoderV2;\r\ncontract SupplyChain {\r\n    // Smart Contract owner will be the person who deploys the contract, only he can authorize various roles like retailer, Manufacturer, etc.\r\n    address public Owner;\r\n\r\n    constructor() public {\r\n        Owner = msg.sender;\r\n    }\r\n\r\n    modifier onlyByOwner() {\r\n        require(msg.sender == Owner);\r\n        _;\r\n    }\r\n\r\n    enum STAGE {\r\n        Manufacture,\r\n        Distribution,\r\n        Retail,\r\n        sold\r\n    }\r\n\r\n    uint256 public medicineCtr = 0;\r\n    uint256 public productCtr = 0;\r\n    uint256 public rmsCtr = 0;\r\n    uint256 public manCtr = 0;\r\n    uint256 public disCtr = 0;\r\n    uint256 public retCtr = 0;\r\n\r\n    struct medicine {\r\n        uint256 id;\r\n        string name;\r\n        string description;\r\n        uint256 price; \r\n        uint256 RMSid;\r\n    }\r\n\r\n    struct Product {\r\n        uint256 id;\r\n        string name;\r\n        string description;\r\n        uint256 price;\r\n        uint256[] medicineIds; // Liste des mdicaments associs\r\n        uint256 MANid;\r\n        uint256 DISid;\r\n        uint256 RETid;\r\n        STAGE stage;\r\n    }\r\n\r\n    mapping(uint256 => Product) public ProductStock;\r\n    mapping(uint256 => medicine) public MedicineStock;\r\n\r\n    mapping(address => uint256[]) public MedicinesByAddress; // Mapping des adresses aux identifiants des mdicaments qu'elles ont ajouts\r\n\r\n    event LogAddMedicine(string name, string description, uint256 price);\r\n\r\n    struct rawMaterialSupplier {\r\n        address addr;\r\n        uint256 id;\r\n        string name;\r\n        string place;\r\n    }\r\n\r\n    mapping(uint256 => rawMaterialSupplier) public RMS;\r\n\r\n    struct manufacturer {\r\n        address addr;\r\n        uint256 id;\r\n        string name;\r\n        string place;\r\n    }\r\n\r\n    mapping(uint256 => manufacturer) public MAN;\r\n\r\n    struct distributor {\r\n        address addr;\r\n        uint256 id;\r\n        string name;\r\n        string place;\r\n    }\r\n\r\n    mapping(uint256 => distributor) public DIS;\r\n\r\n    struct retailer {\r\n        address addr;\r\n        uint256 id;\r\n        string name;\r\n        string place;\r\n    }\r\n\r\n    mapping(uint256 => retailer) public RET;\r\n\r\n    // Add Raw Material Supplier\r\n    function addRMS(address _address, string memory _name, string memory _place) public {\r\n        require(!isRMSRegistered(_address), \"RMS already registered\");\r\n        rmsCtr++;\r\n        RMS[rmsCtr] = rawMaterialSupplier(_address, rmsCtr, _name, _place);\r\n    }\r\n\r\n    // Add Manufacturer\r\n    function addManufacturer(address _address, string memory _name, string memory _place) public {\r\n        require(!isMANRegistered(_address), \"Manufacturer already registered\");\r\n        manCtr++;\r\n        MAN[manCtr] = manufacturer(_address, manCtr, _name, _place);\r\n    }\r\n\r\n    // Add Distributor\r\n    function addDistributor(address _address, string memory _name, string memory _place) public {\r\n        require(!isDISRegistered(_address), \"Distributor already registered\");\r\n        disCtr++;\r\n        DIS[disCtr] = distributor(_address, disCtr, _name, _place);\r\n    }\r\n\r\n    // Add Retailer\r\n    function addRetailer(address _address, string memory _name, string memory _place) public {\r\n        require(!isRETRegistered(_address), \"Retailer already registered\");\r\n        retCtr++;\r\n        RET[retCtr] = retailer(_address, retCtr, _name, _place);\r\n    }\r\n\r\n    // Private helper functions to check if an address is already registered for a role\r\n    function isRMSRegistered(address _address) private view returns (bool) {\r\n        for (uint256 i = 1; i <= rmsCtr; i++) {\r\n            if (RMS[i].addr == _address) return true;\r\n        }\r\n        return false;\r\n    }\r\n\r\n    function isMANRegistered(address _address) private view returns (bool) {\r\n        for (uint256 i = 1; i <= manCtr; i++) {\r\n            if (MAN[i].addr == _address) return true;\r\n        }\r\n        return false;\r\n    }\r\n\r\n    function isDISRegistered(address _address) private view returns (bool) {\r\n        for (uint256 i = 1; i <= disCtr; i++) {\r\n            if (DIS[i].addr == _address) return true;\r\n        }\r\n        return false;\r\n    }\r\n\r\n    function isRETRegistered(address _address) private view returns (bool) {\r\n        for (uint256 i = 1; i <= retCtr; i++) {\r\n            if (RET[i].addr == _address) return true;\r\n        }\r\n        return false;\r\n    }\r\n\r\n    function findRMS(address _address) public view returns (uint256) {\r\n        require(rmsCtr > 0);\r\n        for (uint256 i = 1; i <= rmsCtr; i++) {\r\n            if (RMS[i].addr == _address) return RMS[i].id;\r\n        }\r\n        return 0;\r\n    }\r\n\r\n    function findMAN(address _address) public view returns (uint256) {\r\n        require(manCtr > 0);\r\n        for (uint256 i = 1; i <= manCtr; i++) {\r\n            if (MAN[i].addr == _address) return MAN[i].id;\r\n        }\r\n        return 0;\r\n    }\r\n\r\n    function findDIS(address _address) private view returns (uint256) {\r\n        require(disCtr > 0);\r\n        for (uint256 i = 1; i <= disCtr; i++) {\r\n            if (DIS[i].addr == _address) return DIS[i].id;\r\n        }\r\n        return 0;\r\n    }\r\n\r\n    function findRET(address _address) private view returns (uint256) {\r\n        require(retCtr > 0);\r\n        for (uint256 i = 1; i <= retCtr; i++) {\r\n            if (RET[i].addr == _address) return RET[i].id;\r\n        }\r\n        return 0;\r\n    }\r\n\r\n    // To supply products from Manufacturer to distributor\r\n    function Distribute(uint256 _produitId) public {\r\n        require(_produitId > 0 && _produitId <= productCtr);\r\n        uint256 _id = findDIS(msg.sender);\r\n        require(_id > 0);\r\n        require(ProductStock[_produitId].stage == STAGE.Manufacture);\r\n        ProductStock[_produitId].DISid = _id;\r\n        ProductStock[_produitId].stage = STAGE.Distribution;\r\n    }\r\n\r\n    // To supply products from distributor to retailer\r\n    function Retail(uint256 _produitId) public {\r\n        require(_produitId > 0 && _produitId <= productCtr);\r\n        uint256 _id = findRET(msg.sender);\r\n        require(_id > 0);\r\n        require(ProductStock[_produitId].stage == STAGE.Distribution);\r\n        ProductStock[_produitId].RETid = _id;\r\n        ProductStock[_produitId].stage = STAGE.Retail;\r\n    }\r\n\r\n    // To sell products from retailer to consumer\r\n    function sold(uint256 _produitId) public {\r\n        require(_produitId > 0 && _produitId <= productCtr);\r\n        uint256 _id = findRET(msg.sender);\r\n        require(_id > 0);\r\n        require(_id == ProductStock[_produitId].RETid);\r\n        require(ProductStock[_produitId].stage == STAGE.Retail);\r\n        ProductStock[_produitId].stage = STAGE.sold;\r\n    }\r\n\r\n    // Function to add medicine\r\n   function addMedicine(string memory _name, string memory _description, uint256 _price, uint256 _rmsId) public {\r\n    medicineCtr++;  // Incrmenter le compteur de mdicaments\r\n    MedicineStock[medicineCtr] = medicine(medicineCtr, _name, _description, _price, _rmsId);\r\n\r\n    // Ajout du mdicament  la liste des mdicaments associs  l'adresse de l'utilisateur\r\n    MedicinesByAddress[msg.sender].push(medicineCtr); // Utiliser msg.sender pour l'adresse de l'appelant\r\n\r\n    emit LogAddMedicine(_name, _description, _price);\r\n}\r\n\r\n\r\n   // Exemple de fonction de rcupration des mdicaments associs  une adresse\r\nfunction getMedicinesByAddress(address _address) public view returns (uint256[] memory) {\r\n    return MedicinesByAddress[_address];\r\n}\r\n\r\n    // Function to get the role of a specific address\r\n    function getRole(address _address) public view returns (string memory) {\r\n        if (isRMSRegistered(_address)) return \"RawMaterialSupplier\";\r\n        if (isMANRegistered(_address)) return \"Manufacturer\";\r\n        if (isDISRegistered(_address)) return \"Distributor\";\r\n        if (isRETRegistered(_address)) return \"Retailer\";\r\n        return \"None\"; // No role found\r\n    }\r\n\r\n    // Function to add a product containing multiple medicines\r\n    function addProduct(\r\n        string memory _name,\r\n        string memory _description,\r\n        uint256 _price,\r\n        uint256[] memory _medicineIds,\r\n        uint256 _MANid\r\n    ) public {\r\n        // Validate: Check that all medicines exist and are at the correct stage\r\n        for (uint256 i = 0; i < _medicineIds.length; i++) {\r\n            require(_medicineIds[i] > 0 && _medicineIds[i] <= medicineCtr, \"Invalid medicine ID\");\r\n        }\r\n        require(_MANid > 0 && _MANid <= manCtr, \"Invalid MAN ID\");\r\n        require(MAN[_MANid].addr == msg.sender, \"Only the manufacturer can add this product\");\r\n\r\n        productCtr++;\r\n        ProductStock[productCtr] = Product(\r\n            productCtr,\r\n            _name,\r\n            _description,\r\n            _price,\r\n            _medicineIds,\r\n            _MANid,\r\n            0,\r\n            0,\r\n            STAGE.Manufacture\r\n        );\r\n    }\r\n\r\nfunction getAllMedicines() public view returns (uint256[] memory) {\r\n    uint256[] memory allMedicines = new uint256[](medicineCtr);\r\n    for (uint256 i = 1; i <= medicineCtr; i++) {\r\n        allMedicines[i-1] = i;\r\n    }\r\n    return allMedicines;\r\n}\r\nfunction getMedicineDetails(uint256[] memory medicineIds) public view returns (medicine[] memory) {\r\n    medicine[] memory medicinesDetails = new medicine[](medicineIds.length);\r\n    \r\n    for (uint256 i = 0; i < medicineIds.length; i++) {\r\n        uint256 id = medicineIds[i];\r\n        require(id > 0 && id <= medicineCtr, \"Invalid medicine ID\");\r\n        medicinesDetails[i] = MedicineStock[id];\r\n    }\r\n\r\n    return medicinesDetails;\r\n}\r\n\r\n\r\n}\r\n",
  "sourcePath": "C:\\Users\\J.P.M\\Documents\\anacondaProject\\Lecture 1\\Blockchain-Based-Supply-Chain\\contracts\\SupplyChain.sol",
  "compiler": {
    "name": "solc",
    "version": "0.5.16+commit.9c3226ce.Emscripten.clang"
  },
  "schemaVersion": "3.4.16",
  "updatedAt": "2024-11-20T19:53:43.563Z",
  "networkType": "ethereum",
  "devdoc": {
    "methods": {}
  },
  "userdoc": {
    "methods": {}
  }
}